{
  "_format": "hh-sol-artifact-1",
  "contractName": "Consciousness",
  "sourceName": "contracts/Consciousness.sol",
  "abi": [
    {
      "inputs": [
        {
          "internalType": "address",
          "name": "_gameContract",
          "type": "address"
        }
      ],
      "stateMutability": "nonpayable",
      "type": "constructor"
    },
    {
      "inputs": [],
      "name": "_premiumContract",
      "outputs": [
        {
          "internalType": "contract IPremium",
          "name": "",
          "type": "address"
        }
      ],
      "stateMutability": "view",
      "type": "function"
    },
    {
      "inputs": [
        {
          "internalType": "uint256",
          "name": "_contentId",
          "type": "uint256"
        }
      ],
      "name": "checkIfApproved",
      "outputs": [
        {
          "internalType": "bool",
          "name": "",
          "type": "bool"
        }
      ],
      "stateMutability": "view",
      "type": "function"
    },
    {
      "inputs": [],
      "name": "getAllContent",
      "outputs": [
        {
          "components": [
            {
              "internalType": "address payable",
              "name": "contentOwner",
              "type": "address"
            },
            {
              "internalType": "uint256",
              "name": "id",
              "type": "uint256"
            },
            {
              "internalType": "bool",
              "name": "accepted",
              "type": "bool"
            },
            {
              "internalType": "string",
              "name": "imageString",
              "type": "string"
            },
            {
              "internalType": "string",
              "name": "title",
              "type": "string"
            },
            {
              "internalType": "string",
              "name": "contentDescription",
              "type": "string"
            },
            {
              "internalType": "string",
              "name": "category",
              "type": "string"
            },
            {
              "internalType": "string",
              "name": "facebook",
              "type": "string"
            },
            {
              "internalType": "string",
              "name": "instagram",
              "type": "string"
            },
            {
              "internalType": "string",
              "name": "telegram",
              "type": "string"
            },
            {
              "internalType": "string",
              "name": "twitter",
              "type": "string"
            }
          ],
          "internalType": "struct Consciousness.Content[]",
          "name": "",
          "type": "tuple[]"
        }
      ],
      "stateMutability": "view",
      "type": "function"
    },
    {
      "inputs": [],
      "name": "getApprovedContent",
      "outputs": [
        {
          "components": [
            {
              "internalType": "address payable",
              "name": "contentOwner",
              "type": "address"
            },
            {
              "internalType": "uint256",
              "name": "id",
              "type": "uint256"
            },
            {
              "internalType": "bool",
              "name": "accepted",
              "type": "bool"
            },
            {
              "internalType": "string",
              "name": "imageString",
              "type": "string"
            },
            {
              "internalType": "string",
              "name": "title",
              "type": "string"
            },
            {
              "internalType": "string",
              "name": "contentDescription",
              "type": "string"
            },
            {
              "internalType": "string",
              "name": "category",
              "type": "string"
            },
            {
              "internalType": "string",
              "name": "facebook",
              "type": "string"
            },
            {
              "internalType": "string",
              "name": "instagram",
              "type": "string"
            },
            {
              "internalType": "string",
              "name": "telegram",
              "type": "string"
            },
            {
              "internalType": "string",
              "name": "twitter",
              "type": "string"
            }
          ],
          "internalType": "struct Consciousness.Content[]",
          "name": "",
          "type": "tuple[]"
        }
      ],
      "stateMutability": "view",
      "type": "function"
    },
    {
      "inputs": [
        {
          "internalType": "string",
          "name": "_image",
          "type": "string"
        },
        {
          "internalType": "string",
          "name": "_title",
          "type": "string"
        },
        {
          "internalType": "string",
          "name": "_contentDesc",
          "type": "string"
        },
        {
          "internalType": "string",
          "name": "_category",
          "type": "string"
        },
        {
          "internalType": "string",
          "name": "_facebook",
          "type": "string"
        },
        {
          "internalType": "string",
          "name": "_instagram",
          "type": "string"
        },
        {
          "internalType": "string",
          "name": "_telegram",
          "type": "string"
        },
        {
          "internalType": "string",
          "name": "_twitter",
          "type": "string"
        }
      ],
      "name": "proposeContent",
      "outputs": [],
      "stateMutability": "nonpayable",
      "type": "function"
    },
    {
      "inputs": [
        {
          "internalType": "uint256",
          "name": "_contentId",
          "type": "uint256"
        },
        {
          "internalType": "address",
          "name": "_contentOwner",
          "type": "address"
        }
      ],
      "name": "voteContent",
      "outputs": [],
      "stateMutability": "nonpayable",
      "type": "function"
    }
  ],
  "bytecode": "0x60806040523480156200001157600080fd5b50604051620020a7380380620020a7833981810160405281019062000037919062000129565b336000806101000a81548173ffffffffffffffffffffffffffffffffffffffff021916908373ffffffffffffffffffffffffffffffffffffffff16021790555080600260006101000a81548173ffffffffffffffffffffffffffffffffffffffff021916908373ffffffffffffffffffffffffffffffffffffffff160217905550506200015b565b600080fd5b600073ffffffffffffffffffffffffffffffffffffffff82169050919050565b6000620000f182620000c4565b9050919050565b6200010381620000e4565b81146200010f57600080fd5b50565b6000815190506200012381620000f8565b92915050565b600060208284031215620001425762000141620000bf565b5b6000620001528482850162000112565b91505092915050565b611f3c806200016b6000396000f3fe608060405234801561001057600080fd5b50600436106100625760003560e01c806354315084146100675780636f7d984d14610085578063a599e153146100a1578063d507120b146100d1578063eb4525f5146100ef578063f9b089e61461010b575b600080fd5b61006f610129565b60405161007c9190611512565b60405180910390f35b61009f600480360381019061009a919061167d565b610694565b005b6100bb60048036038101906100b6919061183f565b61094c565b6040516100c8919061187b565b60405180910390f35b6100d9610976565b6040516100e691906118f5565b60405180910390f35b6101096004803603810190610104919061194e565b61099c565b005b610113610b19565b6040516101209190611512565b60405180910390f35b60606006805480602002602001604051908101604052809291908181526020016000905b8282101561068b57838290600052602060002090600b0201604051806101600160405290816000820160009054906101000a900473ffffffffffffffffffffffffffffffffffffffff1673ffffffffffffffffffffffffffffffffffffffff1673ffffffffffffffffffffffffffffffffffffffff168152602001600182015481526020016002820160009054906101000a900460ff161515151581526020016003820180546101fc906119bd565b80601f0160208091040260200160405190810160405280929190818152602001828054610228906119bd565b80156102755780601f1061024a57610100808354040283529160200191610275565b820191906000526020600020905b81548152906001019060200180831161025857829003601f168201915b5050505050815260200160048201805461028e906119bd565b80601f01602080910402602001604051908101604052809291908181526020018280546102ba906119bd565b80156103075780601f106102dc57610100808354040283529160200191610307565b820191906000526020600020905b8154815290600101906020018083116102ea57829003601f168201915b50505050508152602001600582018054610320906119bd565b80601f016020809104026020016040519081016040528092919081815260200182805461034c906119bd565b80156103995780601f1061036e57610100808354040283529160200191610399565b820191906000526020600020905b81548152906001019060200180831161037c57829003601f168201915b505050505081526020016006820180546103b2906119bd565b80601f01602080910402602001604051908101604052809291908181526020018280546103de906119bd565b801561042b5780601f106104005761010080835404028352916020019161042b565b820191906000526020600020905b81548152906001019060200180831161040e57829003601f168201915b50505050508152602001600782018054610444906119bd565b80601f0160208091040260200160405190810160405280929190818152602001828054610470906119bd565b80156104bd5780601f10610492576101008083540402835291602001916104bd565b820191906000526020600020905b8154815290600101906020018083116104a057829003601f168201915b505050505081526020016008820180546104d6906119bd565b80601f0160208091040260200160405190810160405280929190818152602001828054610502906119bd565b801561054f5780601f106105245761010080835404028352916020019161054f565b820191906000526020600020905b81548152906001019060200180831161053257829003601f168201915b50505050508152602001600982018054610568906119bd565b80601f0160208091040260200160405190810160405280929190818152602001828054610594906119bd565b80156105e15780601f106105b6576101008083540402835291602001916105e1565b820191906000526020600020905b8154815290600101906020018083116105c457829003601f168201915b50505050508152602001600a820180546105fa906119bd565b80601f0160208091040260200160405190810160405280929190818152602001828054610626906119bd565b80156106735780601f1061064857610100808354040283529160200191610673565b820191906000526020600020905b81548152906001019060200180831161065657829003601f168201915b5050505050815250508152602001906001019061014d565b50505050905090565b6000600560003373ffffffffffffffffffffffffffffffffffffffff1673ffffffffffffffffffffffffffffffffffffffff1681526020019081526020016000209050338160000160006101000a81548173ffffffffffffffffffffffffffffffffffffffff021916908373ffffffffffffffffffffffffffffffffffffffff1602179055506001548160010181905550888160030190816107369190611b90565b50878160040190816107489190611b90565b508681600501908161075a9190611b90565b508581600601908161076c9190611b90565b508381600801908161077e9190611b90565b50828160090190816107909190611b90565b50848160070190816107a29190611b90565b508181600a0190816107b49190611b90565b50600160008154809291906107c890611c91565b919050555060068190806001815401808255809150506001900390600052602060002090600b02016000909190919091506000820160009054906101000a900473ffffffffffffffffffffffffffffffffffffffff168160000160006101000a81548173ffffffffffffffffffffffffffffffffffffffff021916908373ffffffffffffffffffffffffffffffffffffffff160217905550600182015481600101556002820160009054906101000a900460ff168160020160006101000a81548160ff021916908315150217905550600382018160030190816108ab9190611cef565b50600482018160040190816108c09190611cef565b50600582018160050190816108d59190611cef565b50600682018160060190816108ea9190611cef565b50600782018160070190816108ff9190611cef565b50600882018160080190816109149190611cef565b50600982018160090190816109299190611cef565b50600a820181600a01908161093e9190611cef565b505050505050505050505050565b60006003600083815260200190815260200160002060009054906101000a900460ff169050919050565b600260009054906101000a900473ffffffffffffffffffffffffffffffffffffffff1681565b600260009054906101000a900473ffffffffffffffffffffffffffffffffffffffff1673ffffffffffffffffffffffffffffffffffffffff1663abf9b5a8336040518263ffffffff1660e01b81526004016109f79190611de6565b602060405180830381865afa158015610a14573d6000803e3d6000fd5b505050506040513d601f19601f82011682018060405250810190610a389190611e2d565b610a77576040517f08c379a0000000000000000000000000000000000000000000000000000000008152600401610a6e90611eb7565b60405180910390fd5b6000600460008373ffffffffffffffffffffffffffffffffffffffff1673ffffffffffffffffffffffffffffffffffffffff1681526020019081526020016000206000848152602001908152602001600020905060018160020160006101000a81548160ff02191690831515021790555060016003600085815260200190815260200160002060006101000a81548160ff021916908315150217905550505050565b60606000805b600680549050811015610b8c576001151560068281548110610b4457610b43611ed7565b5b90600052602060002090600b020160020160009054906101000a900460ff16151503610b79578180610b7590611c91565b9250505b8080610b8490611c91565b915050610b1f565b5060008167ffffffffffffffff811115610ba957610ba8611552565b5b604051908082528060200260200182016040528015610be257816020015b610bcf6111b9565b815260200190600190039081610bc75790505b5090506000915060005b6006805490508110156111b0576001151560068281548110610c1157610c10611ed7565b5b90600052602060002090600b020160020160009054906101000a900460ff1615150361119d5760068181548110610c4b57610c4a611ed7565b5b90600052602060002090600b0201604051806101600160405290816000820160009054906101000a900473ffffffffffffffffffffffffffffffffffffffff1673ffffffffffffffffffffffffffffffffffffffff1673ffffffffffffffffffffffffffffffffffffffff168152602001600182015481526020016002820160009054906101000a900460ff16151515158152602001600382018054610cf0906119bd565b80601f0160208091040260200160405190810160405280929190818152602001828054610d1c906119bd565b8015610d695780601f10610d3e57610100808354040283529160200191610d69565b820191906000526020600020905b815481529060010190602001808311610d4c57829003601f168201915b50505050508152602001600482018054610d82906119bd565b80601f0160208091040260200160405190810160405280929190818152602001828054610dae906119bd565b8015610dfb5780601f10610dd057610100808354040283529160200191610dfb565b820191906000526020600020905b815481529060010190602001808311610dde57829003601f168201915b50505050508152602001600582018054610e14906119bd565b80601f0160208091040260200160405190810160405280929190818152602001828054610e40906119bd565b8015610e8d5780601f10610e6257610100808354040283529160200191610e8d565b820191906000526020600020905b815481529060010190602001808311610e7057829003601f168201915b50505050508152602001600682018054610ea6906119bd565b80601f0160208091040260200160405190810160405280929190818152602001828054610ed2906119bd565b8015610f1f5780601f10610ef457610100808354040283529160200191610f1f565b820191906000526020600020905b815481529060010190602001808311610f0257829003601f168201915b50505050508152602001600782018054610f38906119bd565b80601f0160208091040260200160405190810160405280929190818152602001828054610f64906119bd565b8015610fb15780601f10610f8657610100808354040283529160200191610fb1565b820191906000526020600020905b815481529060010190602001808311610f9457829003601f168201915b50505050508152602001600882018054610fca906119bd565b80601f0160208091040260200160405190810160405280929190818152602001828054610ff6906119bd565b80156110435780601f1061101857610100808354040283529160200191611043565b820191906000526020600020905b81548152906001019060200180831161102657829003601f168201915b5050505050815260200160098201805461105c906119bd565b80601f0160208091040260200160405190810160405280929190818152602001828054611088906119bd565b80156110d55780601f106110aa576101008083540402835291602001916110d5565b820191906000526020600020905b8154815290600101906020018083116110b857829003601f168201915b50505050508152602001600a820180546110ee906119bd565b80601f016020809104026020016040519081016040528092919081815260200182805461111a906119bd565b80156111675780601f1061113c57610100808354040283529160200191611167565b820191906000526020600020905b81548152906001019060200180831161114a57829003601f168201915b50505050508152505082848151811061118357611182611ed7565b5b6020026020010181905250828061119990611c91565b9350505b80806111a890611c91565b915050610bec565b50809250505090565b604051806101600160405280600073ffffffffffffffffffffffffffffffffffffffff1681526020016000815260200160001515815260200160608152602001606081526020016060815260200160608152602001606081526020016060815260200160608152602001606081525090565b600081519050919050565b600082825260208201905092915050565b6000819050602082019050919050565b600073ffffffffffffffffffffffffffffffffffffffff82169050919050565b600061128282611257565b9050919050565b61129281611277565b82525050565b6000819050919050565b6112ab81611298565b82525050565b60008115159050919050565b6112c6816112b1565b82525050565b600081519050919050565b600082825260208201905092915050565b60005b838110156113065780820151818401526020810190506112eb565b60008484015250505050565b6000601f19601f8301169050919050565b600061132e826112cc565b61133881856112d7565b93506113488185602086016112e8565b61135181611312565b840191505092915050565b6000610160830160008301516113756000860182611289565b50602083015161138860208601826112a2565b50604083015161139b60408601826112bd565b50606083015184820360608601526113b38282611323565b915050608083015184820360808601526113cd8282611323565b91505060a083015184820360a08601526113e78282611323565b91505060c083015184820360c08601526114018282611323565b91505060e083015184820360e086015261141b8282611323565b9150506101008301518482036101008601526114378282611323565b9150506101208301518482036101208601526114538282611323565b91505061014083015184820361014086015261146f8282611323565b9150508091505092915050565b6000611488838361135c565b905092915050565b6000602082019050919050565b60006114a88261122b565b6114b28185611236565b9350836020820285016114c485611247565b8060005b8581101561150057848403895281516114e1858261147c565b94506114ec83611490565b925060208a019950506001810190506114c8565b50829750879550505050505092915050565b6000602082019050818103600083015261152c818461149d565b905092915050565b6000604051905090565b600080fd5b600080fd5b600080fd5b600080fd5b7f4e487b7100000000000000000000000000000000000000000000000000000000600052604160045260246000fd5b61158a82611312565b810181811067ffffffffffffffff821117156115a9576115a8611552565b5b80604052505050565b60006115bc611534565b90506115c88282611581565b919050565b600067ffffffffffffffff8211156115e8576115e7611552565b5b6115f182611312565b9050602081019050919050565b82818337600083830152505050565b600061162061161b846115cd565b6115b2565b90508281526020810184848401111561163c5761163b61154d565b5b6116478482856115fe565b509392505050565b600082601f83011261166457611663611548565b5b813561167484826020860161160d565b91505092915050565b600080600080600080600080610100898b03121561169e5761169d61153e565b5b600089013567ffffffffffffffff8111156116bc576116bb611543565b5b6116c88b828c0161164f565b985050602089013567ffffffffffffffff8111156116e9576116e8611543565b5b6116f58b828c0161164f565b975050604089013567ffffffffffffffff81111561171657611715611543565b5b6117228b828c0161164f565b965050606089013567ffffffffffffffff81111561174357611742611543565b5b61174f8b828c0161164f565b955050608089013567ffffffffffffffff8111156117705761176f611543565b5b61177c8b828c0161164f565b94505060a089013567ffffffffffffffff81111561179d5761179c611543565b5b6117a98b828c0161164f565b93505060c089013567ffffffffffffffff8111156117ca576117c9611543565b5b6117d68b828c0161164f565b92505060e089013567ffffffffffffffff8111156117f7576117f6611543565b5b6118038b828c0161164f565b9150509295985092959890939650565b61181c81611298565b811461182757600080fd5b50565b60008135905061183981611813565b92915050565b6000602082840312156118555761185461153e565b5b60006118638482850161182a565b91505092915050565b611875816112b1565b82525050565b6000602082019050611890600083018461186c565b92915050565b6000819050919050565b60006118bb6118b66118b184611257565b611896565b611257565b9050919050565b60006118cd826118a0565b9050919050565b60006118df826118c2565b9050919050565b6118ef816118d4565b82525050565b600060208201905061190a60008301846118e6565b92915050565b600061191b82611257565b9050919050565b61192b81611910565b811461193657600080fd5b50565b60008135905061194881611922565b92915050565b600080604083850312156119655761196461153e565b5b60006119738582860161182a565b925050602061198485828601611939565b9150509250929050565b7f4e487b7100000000000000000000000000000000000000000000000000000000600052602260045260246000fd5b600060028204905060018216806119d557607f821691505b6020821081036119e8576119e761198e565b5b50919050565b60008190508160005260206000209050919050565b60006020601f8301049050919050565b600082821b905092915050565b600060088302611a507fffffffffffffffffffffffffffffffffffffffffffffffffffffffffffffffff82611a13565b611a5a8683611a13565b95508019841693508086168417925050509392505050565b6000611a8d611a88611a8384611298565b611896565b611298565b9050919050565b6000819050919050565b611aa783611a72565b611abb611ab382611a94565b848454611a20565b825550505050565b600090565b611ad0611ac3565b611adb818484611a9e565b505050565b5b81811015611aff57611af4600082611ac8565b600181019050611ae1565b5050565b601f821115611b4457611b15816119ee565b611b1e84611a03565b81016020851015611b2d578190505b611b41611b3985611a03565b830182611ae0565b50505b505050565b600082821c905092915050565b6000611b6760001984600802611b49565b1980831691505092915050565b6000611b808383611b56565b9150826002028217905092915050565b611b99826112cc565b67ffffffffffffffff811115611bb257611bb1611552565b5b611bbc82546119bd565b611bc7828285611b03565b600060209050601f831160018114611bfa5760008415611be8578287015190505b611bf28582611b74565b865550611c5a565b601f198416611c08866119ee565b60005b82811015611c3057848901518255600182019150602085019450602081019050611c0b565b86831015611c4d5784890151611c49601f891682611b56565b8355505b6001600288020188555050505b505050505050565b7f4e487b7100000000000000000000000000000000000000000000000000000000600052601160045260246000fd5b6000611c9c82611298565b91507fffffffffffffffffffffffffffffffffffffffffffffffffffffffffffffffff8203611cce57611ccd611c62565b5b600182019050919050565b600081549050611ce8816119bd565b9050919050565b818103611cfd575050611dd5565b611d0682611cd9565b67ffffffffffffffff811115611d1f57611d1e611552565b5b611d2982546119bd565b611d34828285611b03565b6000601f831160018114611d635760008415611d51578287015490505b611d5b8582611b74565b865550611dce565b601f198416611d71876119ee565b9650611d7c866119ee565b60005b82811015611da457848901548255600182019150600185019450602081019050611d7f565b86831015611dc15784890154611dbd601f891682611b56565b8355505b6001600288020188555050505b5050505050505b565b611de081611910565b82525050565b6000602082019050611dfb6000830184611dd7565b92915050565b611e0a816112b1565b8114611e1557600080fd5b50565b600081519050611e2781611e01565b92915050565b600060208284031215611e4357611e4261153e565b5b6000611e5184828501611e18565b91505092915050565b600082825260208201905092915050565b7f53656e646572206973206e6f742077686974656c697374656400000000000000600082015250565b6000611ea1601983611e5a565b9150611eac82611e6b565b602082019050919050565b60006020820190508181036000830152611ed081611e94565b9050919050565b7f4e487b7100000000000000000000000000000000000000000000000000000000600052603260045260246000fdfea2646970667358221220a577cf3ec4771bbd7b957e2e051f1a64782874156be4c51280a667f147b7849464736f6c63430008100033",
  "linkReferences": {},
  "deployedLinkReferences": {}
}