{
  "_format": "hh-sol-artifact-1",
  "contractName": "Consciousness",
  "sourceName": "contracts/Consciousness.sol",
  "abi": [
    {
      "inputs": [
        {
          "internalType": "address",
          "name": "_gameContract",
          "type": "address"
        }
      ],
      "stateMutability": "nonpayable",
      "type": "constructor"
    },
    {
      "inputs": [],
      "name": "_premiumContract",
      "outputs": [
        {
          "internalType": "contract IPremium",
          "name": "",
          "type": "address"
        }
      ],
      "stateMutability": "view",
      "type": "function"
    },
    {
      "inputs": [
        {
          "internalType": "address",
          "name": "_contentOwner",
          "type": "address"
        },
        {
          "internalType": "uint256",
          "name": "_contentId",
          "type": "uint256"
        }
      ],
      "name": "checkIfApproved",
      "outputs": [
        {
          "internalType": "bool",
          "name": "",
          "type": "bool"
        }
      ],
      "stateMutability": "view",
      "type": "function"
    },
    {
      "inputs": [],
      "name": "getApprovedContent",
      "outputs": [
        {
          "components": [
            {
              "internalType": "address payable",
              "name": "contentOwner",
              "type": "address"
            },
            {
              "internalType": "uint256",
              "name": "id",
              "type": "uint256"
            },
            {
              "internalType": "bool",
              "name": "accepted",
              "type": "bool"
            },
            {
              "internalType": "string",
              "name": "imageString",
              "type": "string"
            },
            {
              "internalType": "string",
              "name": "title",
              "type": "string"
            },
            {
              "internalType": "string",
              "name": "contentDescription",
              "type": "string"
            },
            {
              "internalType": "string",
              "name": "category",
              "type": "string"
            }
          ],
          "internalType": "struct Consciousness.Content[]",
          "name": "",
          "type": "tuple[]"
        }
      ],
      "stateMutability": "view",
      "type": "function"
    },
    {
      "inputs": [
        {
          "internalType": "string",
          "name": "_image",
          "type": "string"
        },
        {
          "internalType": "string",
          "name": "_title",
          "type": "string"
        },
        {
          "internalType": "string",
          "name": "_contentDesc",
          "type": "string"
        },
        {
          "internalType": "string",
          "name": "_category",
          "type": "string"
        }
      ],
      "name": "proposeContent",
      "outputs": [],
      "stateMutability": "nonpayable",
      "type": "function"
    },
    {
      "inputs": [
        {
          "internalType": "address",
          "name": "_contentOwner",
          "type": "address"
        },
        {
          "internalType": "uint256",
          "name": "_contentId",
          "type": "uint256"
        }
      ],
      "name": "voteContent",
      "outputs": [],
      "stateMutability": "nonpayable",
      "type": "function"
    }
  ],
  "bytecode": "0x60806040523480156200001157600080fd5b506040516200155238038062001552833981810160405281019062000037919062000129565b336000806101000a81548173ffffffffffffffffffffffffffffffffffffffff021916908373ffffffffffffffffffffffffffffffffffffffff16021790555080600260006101000a81548173ffffffffffffffffffffffffffffffffffffffff021916908373ffffffffffffffffffffffffffffffffffffffff160217905550506200015b565b600080fd5b600073ffffffffffffffffffffffffffffffffffffffff82169050919050565b6000620000f182620000c4565b9050919050565b6200010381620000e4565b81146200010f57600080fd5b50565b6000815190506200012381620000f8565b92915050565b600060208284031215620001425762000141620000bf565b5b6000620001528482850162000112565b91505092915050565b6113e7806200016b6000396000f3fe608060405234801561001057600080fd5b50600436106100575760003560e01c8063234309211461005c5780632ce3d8531461008c5780639a0ff009146100a8578063d507120b146100c4578063f9b089e6146100e2575b600080fd5b610076600480360381019061007191906109d9565b610100565b6040516100839190610a34565b60405180910390f35b6100a660048036038101906100a19190610b95565b610168565b005b6100c260048036038101906100bd91906109d9565b610380565b005b6100cc61045f565b6040516100d99190610ccb565b60405180910390f35b6100ea610485565b6040516100f79190610f17565b60405180910390f35b6000600360008473ffffffffffffffffffffffffffffffffffffffff1673ffffffffffffffffffffffffffffffffffffffff168152602001908152602001600020600083815260200190815260200160002060009054906101000a900460ff16905092915050565b6000600560003373ffffffffffffffffffffffffffffffffffffffff1673ffffffffffffffffffffffffffffffffffffffff1681526020019081526020016000209050338160000160006101000a81548173ffffffffffffffffffffffffffffffffffffffff021916908373ffffffffffffffffffffffffffffffffffffffff16021790555060015481600101819055508481600301908161020a919061113b565b508381600401908161021c919061113b565b508281600501908161022e919061113b565b5081816006019081610240919061113b565b50600160008154809291906102549061123c565b919050555060068190806001815401808255809150506001900390600052602060002090600702016000909190919091506000820160009054906101000a900473ffffffffffffffffffffffffffffffffffffffff168160000160006101000a81548173ffffffffffffffffffffffffffffffffffffffff021916908373ffffffffffffffffffffffffffffffffffffffff160217905550600182015481600101556002820160009054906101000a900460ff168160020160006101000a81548160ff02191690831515021790555060038201816003019081610337919061129a565b506004820181600401908161034c919061129a565b5060058201816005019081610361919061129a565b5060068201816006019081610376919061129a565b5050505050505050565b6000600460008473ffffffffffffffffffffffffffffffffffffffff1673ffffffffffffffffffffffffffffffffffffffff1681526020019081526020016000206000838152602001908152602001600020905060018160020160006101000a81548160ff0219169083151502179055506001600360008573ffffffffffffffffffffffffffffffffffffffff1673ffffffffffffffffffffffffffffffffffffffff168152602001908152602001600020600084815260200190815260200160002060006101000a81548160ff021916908315150217905550505050565b600260009054906101000a900473ffffffffffffffffffffffffffffffffffffffff1681565b60606000805b6006805490508110156104f85760011515600682815481106104b0576104af611382565b5b906000526020600020906007020160020160009054906101000a900460ff161515036104e55781806104e19061123c565b9250505b80806104f09061123c565b91505061048b565b5060008167ffffffffffffffff81111561051557610514610a6a565b5b60405190808252806020026020018201604052801561054e57816020015b61053b6108dc565b8152602001906001900390816105335790505b5090506000915060005b6006805490508110156108d357600115156006828154811061057d5761057c611382565b5b906000526020600020906007020160020160009054906101000a900460ff161515036108c057600681815481106105b7576105b6611382565b5b90600052602060002090600702016040518060e00160405290816000820160009054906101000a900473ffffffffffffffffffffffffffffffffffffffff1673ffffffffffffffffffffffffffffffffffffffff1673ffffffffffffffffffffffffffffffffffffffff168152602001600182015481526020016002820160009054906101000a900460ff1615151515815260200160038201805461065b90610f68565b80601f016020809104026020016040519081016040528092919081815260200182805461068790610f68565b80156106d45780601f106106a9576101008083540402835291602001916106d4565b820191906000526020600020905b8154815290600101906020018083116106b757829003601f168201915b505050505081526020016004820180546106ed90610f68565b80601f016020809104026020016040519081016040528092919081815260200182805461071990610f68565b80156107665780601f1061073b57610100808354040283529160200191610766565b820191906000526020600020905b81548152906001019060200180831161074957829003601f168201915b5050505050815260200160058201805461077f90610f68565b80601f01602080910402602001604051908101604052809291908181526020018280546107ab90610f68565b80156107f85780601f106107cd576101008083540402835291602001916107f8565b820191906000526020600020905b8154815290600101906020018083116107db57829003601f168201915b5050505050815260200160068201805461081190610f68565b80601f016020809104026020016040519081016040528092919081815260200182805461083d90610f68565b801561088a5780601f1061085f5761010080835404028352916020019161088a565b820191906000526020600020905b81548152906001019060200180831161086d57829003601f168201915b5050505050815250508284815181106108a6576108a5611382565b5b602002602001018190525082806108bc9061123c565b9350505b80806108cb9061123c565b915050610558565b50809250505090565b6040518060e00160405280600073ffffffffffffffffffffffffffffffffffffffff16815260200160008152602001600015158152602001606081526020016060815260200160608152602001606081525090565b6000604051905090565b600080fd5b600080fd5b600073ffffffffffffffffffffffffffffffffffffffff82169050919050565b600061097082610945565b9050919050565b61098081610965565b811461098b57600080fd5b50565b60008135905061099d81610977565b92915050565b6000819050919050565b6109b6816109a3565b81146109c157600080fd5b50565b6000813590506109d3816109ad565b92915050565b600080604083850312156109f0576109ef61093b565b5b60006109fe8582860161098e565b9250506020610a0f858286016109c4565b9150509250929050565b60008115159050919050565b610a2e81610a19565b82525050565b6000602082019050610a496000830184610a25565b92915050565b600080fd5b600080fd5b6000601f19601f8301169050919050565b7f4e487b7100000000000000000000000000000000000000000000000000000000600052604160045260246000fd5b610aa282610a59565b810181811067ffffffffffffffff82111715610ac157610ac0610a6a565b5b80604052505050565b6000610ad4610931565b9050610ae08282610a99565b919050565b600067ffffffffffffffff821115610b0057610aff610a6a565b5b610b0982610a59565b9050602081019050919050565b82818337600083830152505050565b6000610b38610b3384610ae5565b610aca565b905082815260208101848484011115610b5457610b53610a54565b5b610b5f848285610b16565b509392505050565b600082601f830112610b7c57610b7b610a4f565b5b8135610b8c848260208601610b25565b91505092915050565b60008060008060808587031215610baf57610bae61093b565b5b600085013567ffffffffffffffff811115610bcd57610bcc610940565b5b610bd987828801610b67565b945050602085013567ffffffffffffffff811115610bfa57610bf9610940565b5b610c0687828801610b67565b935050604085013567ffffffffffffffff811115610c2757610c26610940565b5b610c3387828801610b67565b925050606085013567ffffffffffffffff811115610c5457610c53610940565b5b610c6087828801610b67565b91505092959194509250565b6000819050919050565b6000610c91610c8c610c8784610945565b610c6c565b610945565b9050919050565b6000610ca382610c76565b9050919050565b6000610cb582610c98565b9050919050565b610cc581610caa565b82525050565b6000602082019050610ce06000830184610cbc565b92915050565b600081519050919050565b600082825260208201905092915050565b6000819050602082019050919050565b6000610d1d82610945565b9050919050565b610d2d81610d12565b82525050565b610d3c816109a3565b82525050565b610d4b81610a19565b82525050565b600081519050919050565b600082825260208201905092915050565b60005b83811015610d8b578082015181840152602081019050610d70565b60008484015250505050565b6000610da282610d51565b610dac8185610d5c565b9350610dbc818560208601610d6d565b610dc581610a59565b840191505092915050565b600060e083016000830151610de86000860182610d24565b506020830151610dfb6020860182610d33565b506040830151610e0e6040860182610d42565b5060608301518482036060860152610e268282610d97565b91505060808301518482036080860152610e408282610d97565b91505060a083015184820360a0860152610e5a8282610d97565b91505060c083015184820360c0860152610e748282610d97565b9150508091505092915050565b6000610e8d8383610dd0565b905092915050565b6000602082019050919050565b6000610ead82610ce6565b610eb78185610cf1565b935083602082028501610ec985610d02565b8060005b85811015610f055784840389528151610ee68582610e81565b9450610ef183610e95565b925060208a01995050600181019050610ecd565b50829750879550505050505092915050565b60006020820190508181036000830152610f318184610ea2565b905092915050565b7f4e487b7100000000000000000000000000000000000000000000000000000000600052602260045260246000fd5b60006002820490506001821680610f8057607f821691505b602082108103610f9357610f92610f39565b5b50919050565b60008190508160005260206000209050919050565b60006020601f8301049050919050565b600082821b905092915050565b600060088302610ffb7fffffffffffffffffffffffffffffffffffffffffffffffffffffffffffffffff82610fbe565b6110058683610fbe565b95508019841693508086168417925050509392505050565b600061103861103361102e846109a3565b610c6c565b6109a3565b9050919050565b6000819050919050565b6110528361101d565b61106661105e8261103f565b848454610fcb565b825550505050565b600090565b61107b61106e565b611086818484611049565b505050565b5b818110156110aa5761109f600082611073565b60018101905061108c565b5050565b601f8211156110ef576110c081610f99565b6110c984610fae565b810160208510156110d8578190505b6110ec6110e485610fae565b83018261108b565b50505b505050565b600082821c905092915050565b6000611112600019846008026110f4565b1980831691505092915050565b600061112b8383611101565b9150826002028217905092915050565b61114482610d51565b67ffffffffffffffff81111561115d5761115c610a6a565b5b6111678254610f68565b6111728282856110ae565b600060209050601f8311600181146111a55760008415611193578287015190505b61119d858261111f565b865550611205565b601f1984166111b386610f99565b60005b828110156111db578489015182556001820191506020850194506020810190506111b6565b868310156111f857848901516111f4601f891682611101565b8355505b6001600288020188555050505b505050505050565b7f4e487b7100000000000000000000000000000000000000000000000000000000600052601160045260246000fd5b6000611247826109a3565b91507fffffffffffffffffffffffffffffffffffffffffffffffffffffffffffffffff82036112795761127861120d565b5b600182019050919050565b60008154905061129381610f68565b9050919050565b8181036112a8575050611380565b6112b182611284565b67ffffffffffffffff8111156112ca576112c9610a6a565b5b6112d48254610f68565b6112df8282856110ae565b6000601f83116001811461130e57600084156112fc578287015490505b611306858261111f565b865550611379565b601f19841661131c87610f99565b965061132786610f99565b60005b8281101561134f5784890154825560018201915060018501945060208101905061132a565b8683101561136c5784890154611368601f891682611101565b8355505b6001600288020188555050505b5050505050505b565b7f4e487b7100000000000000000000000000000000000000000000000000000000600052603260045260246000fdfea2646970667358221220cf5bfe69cdd088c2c34e88ccdaa336c711b41b478224551c2a34a6e4e3f4a47f64736f6c63430008100033",
  "linkReferences": {},
  "deployedLinkReferences": {}
}