{
  "_format": "hh-sol-artifact-1",
  "contractName": "Premium",
  "sourceName": "contracts/Premium.sol",
  "abi": [
    {
      "inputs": [],
      "stateMutability": "nonpayable",
      "type": "constructor"
    },
    {
      "anonymous": false,
      "inputs": [
        {
          "indexed": true,
          "internalType": "address",
          "name": "owner",
          "type": "address"
        },
        {
          "indexed": true,
          "internalType": "address",
          "name": "approved",
          "type": "address"
        },
        {
          "indexed": true,
          "internalType": "uint256",
          "name": "tokenId",
          "type": "uint256"
        }
      ],
      "name": "Approval",
      "type": "event"
    },
    {
      "anonymous": false,
      "inputs": [
        {
          "indexed": true,
          "internalType": "address",
          "name": "owner",
          "type": "address"
        },
        {
          "indexed": true,
          "internalType": "address",
          "name": "operator",
          "type": "address"
        },
        {
          "indexed": false,
          "internalType": "bool",
          "name": "approved",
          "type": "bool"
        }
      ],
      "name": "ApprovalForAll",
      "type": "event"
    },
    {
      "anonymous": false,
      "inputs": [
        {
          "indexed": true,
          "internalType": "address",
          "name": "previousOwner",
          "type": "address"
        },
        {
          "indexed": true,
          "internalType": "address",
          "name": "newOwner",
          "type": "address"
        }
      ],
      "name": "OwnershipTransferred",
      "type": "event"
    },
    {
      "anonymous": false,
      "inputs": [
        {
          "indexed": true,
          "internalType": "address",
          "name": "from",
          "type": "address"
        },
        {
          "indexed": true,
          "internalType": "address",
          "name": "to",
          "type": "address"
        },
        {
          "indexed": true,
          "internalType": "uint256",
          "name": "tokenId",
          "type": "uint256"
        }
      ],
      "name": "Transfer",
      "type": "event"
    },
    {
      "inputs": [],
      "name": "addAddressToWhitelist",
      "outputs": [],
      "stateMutability": "nonpayable",
      "type": "function"
    },
    {
      "inputs": [
        {
          "internalType": "address",
          "name": "to",
          "type": "address"
        },
        {
          "internalType": "uint256",
          "name": "tokenId",
          "type": "uint256"
        }
      ],
      "name": "approve",
      "outputs": [],
      "stateMutability": "nonpayable",
      "type": "function"
    },
    {
      "inputs": [
        {
          "internalType": "address",
          "name": "owner",
          "type": "address"
        }
      ],
      "name": "balanceOf",
      "outputs": [
        {
          "internalType": "uint256",
          "name": "",
          "type": "uint256"
        }
      ],
      "stateMutability": "view",
      "type": "function"
    },
    {
      "inputs": [
        {
          "internalType": "uint256",
          "name": "tokenId",
          "type": "uint256"
        }
      ],
      "name": "getApproved",
      "outputs": [
        {
          "internalType": "address",
          "name": "",
          "type": "address"
        }
      ],
      "stateMutability": "view",
      "type": "function"
    },
    {
      "inputs": [],
      "name": "getMaxWhitelistedAddresses",
      "outputs": [
        {
          "internalType": "uint8",
          "name": "",
          "type": "uint8"
        }
      ],
      "stateMutability": "view",
      "type": "function"
    },
    {
      "inputs": [],
      "name": "getNumAddressesWhitelisted",
      "outputs": [
        {
          "internalType": "uint256",
          "name": "",
          "type": "uint256"
        }
      ],
      "stateMutability": "view",
      "type": "function"
    },
    {
      "inputs": [
        {
          "internalType": "address",
          "name": "addr",
          "type": "address"
        }
      ],
      "name": "isAddressWhitelisted",
      "outputs": [
        {
          "internalType": "bool",
          "name": "",
          "type": "bool"
        }
      ],
      "stateMutability": "view",
      "type": "function"
    },
    {
      "inputs": [
        {
          "internalType": "address",
          "name": "owner",
          "type": "address"
        },
        {
          "internalType": "address",
          "name": "operator",
          "type": "address"
        }
      ],
      "name": "isApprovedForAll",
      "outputs": [
        {
          "internalType": "bool",
          "name": "",
          "type": "bool"
        }
      ],
      "stateMutability": "view",
      "type": "function"
    },
    {
      "inputs": [],
      "name": "name",
      "outputs": [
        {
          "internalType": "string",
          "name": "",
          "type": "string"
        }
      ],
      "stateMutability": "view",
      "type": "function"
    },
    {
      "inputs": [],
      "name": "owner",
      "outputs": [
        {
          "internalType": "address",
          "name": "",
          "type": "address"
        }
      ],
      "stateMutability": "view",
      "type": "function"
    },
    {
      "inputs": [
        {
          "internalType": "uint256",
          "name": "tokenId",
          "type": "uint256"
        }
      ],
      "name": "ownerOf",
      "outputs": [
        {
          "internalType": "address",
          "name": "",
          "type": "address"
        }
      ],
      "stateMutability": "view",
      "type": "function"
    },
    {
      "inputs": [],
      "name": "renounceOwnership",
      "outputs": [],
      "stateMutability": "nonpayable",
      "type": "function"
    },
    {
      "inputs": [
        {
          "internalType": "address",
          "name": "from",
          "type": "address"
        },
        {
          "internalType": "address",
          "name": "to",
          "type": "address"
        },
        {
          "internalType": "uint256",
          "name": "tokenId",
          "type": "uint256"
        }
      ],
      "name": "safeTransferFrom",
      "outputs": [],
      "stateMutability": "nonpayable",
      "type": "function"
    },
    {
      "inputs": [
        {
          "internalType": "address",
          "name": "from",
          "type": "address"
        },
        {
          "internalType": "address",
          "name": "to",
          "type": "address"
        },
        {
          "internalType": "uint256",
          "name": "tokenId",
          "type": "uint256"
        },
        {
          "internalType": "bytes",
          "name": "data",
          "type": "bytes"
        }
      ],
      "name": "safeTransferFrom",
      "outputs": [],
      "stateMutability": "nonpayable",
      "type": "function"
    },
    {
      "inputs": [
        {
          "internalType": "address",
          "name": "operator",
          "type": "address"
        },
        {
          "internalType": "bool",
          "name": "approved",
          "type": "bool"
        }
      ],
      "name": "setApprovalForAll",
      "outputs": [],
      "stateMutability": "nonpayable",
      "type": "function"
    },
    {
      "inputs": [
        {
          "internalType": "string",
          "name": "baseURI",
          "type": "string"
        }
      ],
      "name": "setBaseURI",
      "outputs": [],
      "stateMutability": "nonpayable",
      "type": "function"
    },
    {
      "inputs": [
        {
          "internalType": "bytes4",
          "name": "interfaceId",
          "type": "bytes4"
        }
      ],
      "name": "supportsInterface",
      "outputs": [
        {
          "internalType": "bool",
          "name": "",
          "type": "bool"
        }
      ],
      "stateMutability": "view",
      "type": "function"
    },
    {
      "inputs": [],
      "name": "symbol",
      "outputs": [
        {
          "internalType": "string",
          "name": "",
          "type": "string"
        }
      ],
      "stateMutability": "view",
      "type": "function"
    },
    {
      "inputs": [
        {
          "internalType": "uint256",
          "name": "index",
          "type": "uint256"
        }
      ],
      "name": "tokenByIndex",
      "outputs": [
        {
          "internalType": "uint256",
          "name": "",
          "type": "uint256"
        }
      ],
      "stateMutability": "view",
      "type": "function"
    },
    {
      "inputs": [
        {
          "internalType": "address",
          "name": "owner",
          "type": "address"
        },
        {
          "internalType": "uint256",
          "name": "index",
          "type": "uint256"
        }
      ],
      "name": "tokenOfOwnerByIndex",
      "outputs": [
        {
          "internalType": "uint256",
          "name": "",
          "type": "uint256"
        }
      ],
      "stateMutability": "view",
      "type": "function"
    },
    {
      "inputs": [
        {
          "internalType": "uint256",
          "name": "tokenId",
          "type": "uint256"
        }
      ],
      "name": "tokenURI",
      "outputs": [
        {
          "internalType": "string",
          "name": "",
          "type": "string"
        }
      ],
      "stateMutability": "view",
      "type": "function"
    },
    {
      "inputs": [],
      "name": "totalSupply",
      "outputs": [
        {
          "internalType": "uint256",
          "name": "",
          "type": "uint256"
        }
      ],
      "stateMutability": "view",
      "type": "function"
    },
    {
      "inputs": [
        {
          "internalType": "address",
          "name": "from",
          "type": "address"
        },
        {
          "internalType": "address",
          "name": "to",
          "type": "address"
        },
        {
          "internalType": "uint256",
          "name": "tokenId",
          "type": "uint256"
        }
      ],
      "name": "transferFrom",
      "outputs": [],
      "stateMutability": "nonpayable",
      "type": "function"
    },
    {
      "inputs": [
        {
          "internalType": "address",
          "name": "newOwner",
          "type": "address"
        }
      ],
      "name": "transferOwnership",
      "outputs": [],
      "stateMutability": "nonpayable",
      "type": "function"
    }
  ],
  "bytecode": "0x60806040523480156200001157600080fd5b506040518060400160405280601881526020017f426c6f636b636861696e20436f6e7363696f75736e65737300000000000000008152506040518060400160405280600281526020017f424300000000000000000000000000000000000000000000000000000000000081525081600090816200008f919062000459565b508060019081620000a1919062000459565b505050620000c4620000b86200011160201b60201c565b6200011960201b60201c565b6040518060800160405280605d815260200162003f71605d9139600b9081620000ee919062000459565b506005600c60006101000a81548160ff021916908360ff16021790555062000540565b600033905090565b6000600a60009054906101000a900473ffffffffffffffffffffffffffffffffffffffff16905081600a60006101000a81548173ffffffffffffffffffffffffffffffffffffffff021916908373ffffffffffffffffffffffffffffffffffffffff1602179055508173ffffffffffffffffffffffffffffffffffffffff168173ffffffffffffffffffffffffffffffffffffffff167f8be0079c531659141344cd1fd0a4f28419497f9722a3daafe3b4186f6b6457e060405160405180910390a35050565b600081519050919050565b7f4e487b7100000000000000000000000000000000000000000000000000000000600052604160045260246000fd5b7f4e487b7100000000000000000000000000000000000000000000000000000000600052602260045260246000fd5b600060028204905060018216806200026157607f821691505b60208210810362000277576200027662000219565b5b50919050565b60008190508160005260206000209050919050565b60006020601f8301049050919050565b600082821b905092915050565b600060088302620002e17fffffffffffffffffffffffffffffffffffffffffffffffffffffffffffffffff82620002a2565b620002ed8683620002a2565b95508019841693508086168417925050509392505050565b6000819050919050565b6000819050919050565b60006200033a620003346200032e8462000305565b6200030f565b62000305565b9050919050565b6000819050919050565b620003568362000319565b6200036e620003658262000341565b848454620002af565b825550505050565b600090565b6200038562000376565b620003928184846200034b565b505050565b5b81811015620003ba57620003ae6000826200037b565b60018101905062000398565b5050565b601f8211156200040957620003d3816200027d565b620003de8462000292565b81016020851015620003ee578190505b62000406620003fd8562000292565b83018262000397565b50505b505050565b600082821c905092915050565b60006200042e600019846008026200040e565b1980831691505092915050565b60006200044983836200041b565b9150826002028217905092915050565b6200046482620001df565b67ffffffffffffffff81111562000480576200047f620001ea565b5b6200048c825462000248565b62000499828285620003be565b600060209050601f831160018114620004d15760008415620004bc578287015190505b620004c885826200043b565b86555062000538565b601f198416620004e1866200027d565b60005b828110156200050b57848901518255600182019150602085019450602081019050620004e4565b868310156200052b578489015162000527601f8916826200041b565b8355505b6001600288020188555050505b505050505050565b613a2180620005506000396000f3fe608060405234801561001057600080fd5b50600436106101585760003560e01c806370a08231116100c3578063b88d4fde1161007c578063b88d4fde146103c5578063c87b56dd146103e1578063e985e9c514610411578063ef87fa0814610441578063f2fde38b1461045f578063f6d974091461047b57610158565b806370a0823114610329578063715018a6146103595780638da5cb5b146103635780638e7314d91461038157806395d89b411461038b578063a22cb465146103a957610158565b806323b872dd1161011557806323b872dd146102455780632f745c591461026157806342842e0e146102915780634f6ccce7146102ad57806355f804b3146102dd5780636352211e146102f957610158565b806301ffc9a71461015d57806306fdde031461018d578063081812fc146101ab578063095ea7b3146101db57806313f44d10146101f757806318160ddd14610227575b600080fd5b61017760048036038101906101729190612479565b610499565b60405161018491906124c1565b60405180910390f35b610195610513565b6040516101a2919061256c565b60405180910390f35b6101c560048036038101906101c091906125c4565b6105a5565b6040516101d29190612632565b60405180910390f35b6101f560048036038101906101f09190612679565b6105eb565b005b610211600480360381019061020c91906126b9565b610702565b60405161021e91906124c1565b60405180910390f35b61022f610758565b60405161023c91906126f5565b60405180910390f35b61025f600480360381019061025a9190612710565b610765565b005b61027b60048036038101906102769190612679565b6107c5565b60405161028891906126f5565b60405180910390f35b6102ab60048036038101906102a69190612710565b61086a565b005b6102c760048036038101906102c291906125c4565b61088a565b6040516102d491906126f5565b60405180910390f35b6102f760048036038101906102f29190612898565b6108fb565b005b610313600480360381019061030e91906125c4565b610916565b6040516103209190612632565b60405180910390f35b610343600480360381019061033e91906126b9565b61099c565b60405161035091906126f5565b60405180910390f35b610361610a53565b005b61036b610a67565b6040516103789190612632565b60405180910390f35b610389610a91565b005b610393610c65565b6040516103a0919061256c565b60405180910390f35b6103c360048036038101906103be919061290d565b610cf7565b005b6103df60048036038101906103da91906129ee565b610d0d565b005b6103fb60048036038101906103f691906125c4565b610d6f565b604051610408919061256c565b60405180910390f35b61042b60048036038101906104269190612a71565b610dd7565b60405161043891906124c1565b60405180910390f35b610449610e6b565b6040516104569190612acd565b60405180910390f35b610479600480360381019061047491906126b9565b610e82565b005b610483610f05565b60405161049091906126f5565b60405180910390f35b60007f780e9d63000000000000000000000000000000000000000000000000000000007bffffffffffffffffffffffffffffffffffffffffffffffffffffffff1916827bffffffffffffffffffffffffffffffffffffffffffffffffffffffff1916148061050c575061050b82610f16565b5b9050919050565b60606000805461052290612b17565b80601f016020809104026020016040519081016040528092919081815260200182805461054e90612b17565b801561059b5780601f106105705761010080835404028352916020019161059b565b820191906000526020600020905b81548152906001019060200180831161057e57829003601f168201915b5050505050905090565b60006105b082610ff8565b6004600083815260200190815260200160002060009054906101000a900473ffffffffffffffffffffffffffffffffffffffff169050919050565b60006105f682610916565b90508073ffffffffffffffffffffffffffffffffffffffff168373ffffffffffffffffffffffffffffffffffffffff1603610666576040517f08c379a000000000000000000000000000000000000000000000000000000000815260040161065d90612bba565b60405180910390fd5b8073ffffffffffffffffffffffffffffffffffffffff16610685611043565b73ffffffffffffffffffffffffffffffffffffffff1614806106b457506106b3816106ae611043565b610dd7565b5b6106f3576040517f08c379a00000000000000000000000000000000000000000000000000000000081526004016106ea90612c4c565b60405180910390fd5b6106fd838361104b565b505050565b6000600e60008373ffffffffffffffffffffffffffffffffffffffff1673ffffffffffffffffffffffffffffffffffffffff16815260200190815260200160002060009054906101000a900460ff169050919050565b6000600880549050905090565b610776610770611043565b82611104565b6107b5576040517f08c379a00000000000000000000000000000000000000000000000000000000081526004016107ac90612cde565b60405180910390fd5b6107c0838383611199565b505050565b60006107d08361099c565b8210610811576040517f08c379a000000000000000000000000000000000000000000000000000000000815260040161080890612d70565b60405180910390fd5b600660008473ffffffffffffffffffffffffffffffffffffffff1673ffffffffffffffffffffffffffffffffffffffff168152602001908152602001600020600083815260200190815260200160002054905092915050565b61088583838360405180602001604052806000815250610d0d565b505050565b6000610894610758565b82106108d5576040517f08c379a00000000000000000000000000000000000000000000000000000000081526004016108cc90612e02565b60405180910390fd5b600882815481106108e9576108e8612e22565b5b90600052602060002001549050919050565b610903611492565b80600b90816109129190612ffd565b5050565b60008061092283611510565b9050600073ffffffffffffffffffffffffffffffffffffffff168173ffffffffffffffffffffffffffffffffffffffff1603610993576040517f08c379a000000000000000000000000000000000000000000000000000000000815260040161098a9061311b565b60405180910390fd5b80915050919050565b60008073ffffffffffffffffffffffffffffffffffffffff168273ffffffffffffffffffffffffffffffffffffffff1603610a0c576040517f08c379a0000000000000000000000000000000000000000000000000000000008152600401610a03906131ad565b60405180910390fd5b600360008373ffffffffffffffffffffffffffffffffffffffff1673ffffffffffffffffffffffffffffffffffffffff168152602001908152602001600020549050919050565b610a5b611492565b610a65600061154d565b565b6000600a60009054906101000a900473ffffffffffffffffffffffffffffffffffffffff16905090565b600073ffffffffffffffffffffffffffffffffffffffff163373ffffffffffffffffffffffffffffffffffffffff1603610b00576040517f08c379a0000000000000000000000000000000000000000000000000000000008152600401610af790613219565b60405180910390fd5b600e60003373ffffffffffffffffffffffffffffffffffffffff1673ffffffffffffffffffffffffffffffffffffffff16815260200190815260200160002060009054906101000a900460ff1615610b8d576040517f08c379a0000000000000000000000000000000000000000000000000000000008152600401610b84906132ab565b60405180910390fd5b600c60009054906101000a900460ff1660ff16610ba8610758565b10610be8576040517f08c379a0000000000000000000000000000000000000000000000000000000008152600401610bdf9061333d565b60405180910390fd5b610bf2600d611613565b6000610bfe600d611629565b9050610c0a3382611637565b6001600e60003373ffffffffffffffffffffffffffffffffffffffff1673ffffffffffffffffffffffffffffffffffffffff16815260200190815260200160002060006101000a81548160ff02191690831515021790555050565b606060018054610c7490612b17565b80601f0160208091040260200160405190810160405280929190818152602001828054610ca090612b17565b8015610ced5780601f10610cc257610100808354040283529160200191610ced565b820191906000526020600020905b815481529060010190602001808311610cd057829003601f168201915b5050505050905090565b610d09610d02611043565b8383611655565b5050565b610d1e610d18611043565b83611104565b610d5d576040517f08c379a0000000000000000000000000000000000000000000000000000000008152600401610d5490612cde565b60405180910390fd5b610d69848484846117c1565b50505050565b6060610d7a82610ff8565b6000610d8461181d565b90506000815111610da45760405180602001604052806000815250610dcf565b80610dae846118af565b604051602001610dbf929190613399565b6040516020818303038152906040525b915050919050565b6000600560008473ffffffffffffffffffffffffffffffffffffffff1673ffffffffffffffffffffffffffffffffffffffff16815260200190815260200160002060008373ffffffffffffffffffffffffffffffffffffffff1673ffffffffffffffffffffffffffffffffffffffff16815260200190815260200160002060009054906101000a900460ff16905092915050565b6000600c60009054906101000a900460ff16905090565b610e8a611492565b600073ffffffffffffffffffffffffffffffffffffffff168173ffffffffffffffffffffffffffffffffffffffff1603610ef9576040517f08c379a0000000000000000000000000000000000000000000000000000000008152600401610ef09061342f565b60405180910390fd5b610f028161154d565b50565b6000610f11600d611629565b905090565b60007f80ac58cd000000000000000000000000000000000000000000000000000000007bffffffffffffffffffffffffffffffffffffffffffffffffffffffff1916827bffffffffffffffffffffffffffffffffffffffffffffffffffffffff19161480610fe157507f5b5e139f000000000000000000000000000000000000000000000000000000007bffffffffffffffffffffffffffffffffffffffffffffffffffffffff1916827bffffffffffffffffffffffffffffffffffffffffffffffffffffffff1916145b80610ff15750610ff08261197d565b5b9050919050565b611001816119e7565b611040576040517f08c379a00000000000000000000000000000000000000000000000000000000081526004016110379061311b565b60405180910390fd5b50565b600033905090565b816004600083815260200190815260200160002060006101000a81548173ffffffffffffffffffffffffffffffffffffffff021916908373ffffffffffffffffffffffffffffffffffffffff160217905550808273ffffffffffffffffffffffffffffffffffffffff166110be83610916565b73ffffffffffffffffffffffffffffffffffffffff167f8c5be1e5ebec7d5bd14f71427d1e84f3dd0314c0f7b2291e5b200ac8c7c3b92560405160405180910390a45050565b60008061111083610916565b90508073ffffffffffffffffffffffffffffffffffffffff168473ffffffffffffffffffffffffffffffffffffffff16148061115257506111518185610dd7565b5b8061119057508373ffffffffffffffffffffffffffffffffffffffff16611178846105a5565b73ffffffffffffffffffffffffffffffffffffffff16145b91505092915050565b8273ffffffffffffffffffffffffffffffffffffffff166111b982610916565b73ffffffffffffffffffffffffffffffffffffffff161461120f576040517f08c379a0000000000000000000000000000000000000000000000000000000008152600401611206906134c1565b60405180910390fd5b600073ffffffffffffffffffffffffffffffffffffffff168273ffffffffffffffffffffffffffffffffffffffff160361127e576040517f08c379a000000000000000000000000000000000000000000000000000000000815260040161127590613553565b60405180910390fd5b61128b8383836001611a28565b8273ffffffffffffffffffffffffffffffffffffffff166112ab82610916565b73ffffffffffffffffffffffffffffffffffffffff1614611301576040517f08c379a00000000000000000000000000000000000000000000000000000000081526004016112f8906134c1565b60405180910390fd5b6004600082815260200190815260200160002060006101000a81549073ffffffffffffffffffffffffffffffffffffffff02191690556001600360008573ffffffffffffffffffffffffffffffffffffffff1673ffffffffffffffffffffffffffffffffffffffff168152602001908152602001600020600082825403925050819055506001600360008473ffffffffffffffffffffffffffffffffffffffff1673ffffffffffffffffffffffffffffffffffffffff16815260200190815260200160002060008282540192505081905550816002600083815260200190815260200160002060006101000a81548173ffffffffffffffffffffffffffffffffffffffff021916908373ffffffffffffffffffffffffffffffffffffffff160217905550808273ffffffffffffffffffffffffffffffffffffffff168473ffffffffffffffffffffffffffffffffffffffff167fddf252ad1be2c89b69c2b068fc378daa952ba7f163c4a11628f55a4df523b3ef60405160405180910390a461148d8383836001611b86565b505050565b61149a611043565b73ffffffffffffffffffffffffffffffffffffffff166114b8610a67565b73ffffffffffffffffffffffffffffffffffffffff161461150e576040517f08c379a0000000000000000000000000000000000000000000000000000000008152600401611505906135bf565b60405180910390fd5b565b60006002600083815260200190815260200160002060009054906101000a900473ffffffffffffffffffffffffffffffffffffffff169050919050565b6000600a60009054906101000a900473ffffffffffffffffffffffffffffffffffffffff16905081600a60006101000a81548173ffffffffffffffffffffffffffffffffffffffff021916908373ffffffffffffffffffffffffffffffffffffffff1602179055508173ffffffffffffffffffffffffffffffffffffffff168173ffffffffffffffffffffffffffffffffffffffff167f8be0079c531659141344cd1fd0a4f28419497f9722a3daafe3b4186f6b6457e060405160405180910390a35050565b6001816000016000828254019250508190555050565b600081600001549050919050565b611651828260405180602001604052806000815250611b8c565b5050565b8173ffffffffffffffffffffffffffffffffffffffff168373ffffffffffffffffffffffffffffffffffffffff16036116c3576040517f08c379a00000000000000000000000000000000000000000000000000000000081526004016116ba9061362b565b60405180910390fd5b80600560008573ffffffffffffffffffffffffffffffffffffffff1673ffffffffffffffffffffffffffffffffffffffff16815260200190815260200160002060008473ffffffffffffffffffffffffffffffffffffffff1673ffffffffffffffffffffffffffffffffffffffff16815260200190815260200160002060006101000a81548160ff0219169083151502179055508173ffffffffffffffffffffffffffffffffffffffff168373ffffffffffffffffffffffffffffffffffffffff167f17307eab39ab6107e8899845ad3d59bd9653f200f220920489ca2b5937696c31836040516117b491906124c1565b60405180910390a3505050565b6117cc848484611199565b6117d884848484611be7565b611817576040517f08c379a000000000000000000000000000000000000000000000000000000000815260040161180e906136bd565b60405180910390fd5b50505050565b6060600b805461182c90612b17565b80601f016020809104026020016040519081016040528092919081815260200182805461185890612b17565b80156118a55780601f1061187a576101008083540402835291602001916118a5565b820191906000526020600020905b81548152906001019060200180831161188857829003601f168201915b5050505050905090565b6060600060016118be84611d6e565b01905060008167ffffffffffffffff8111156118dd576118dc61276d565b5b6040519080825280601f01601f19166020018201604052801561190f5781602001600182028036833780820191505090505b509050600082602001820190505b600115611972578080600190039150507f3031323334353637383961626364656600000000000000000000000000000000600a86061a8153600a8581611966576119656136dd565b5b0494506000850361191d575b819350505050919050565b60007f01ffc9a7000000000000000000000000000000000000000000000000000000007bffffffffffffffffffffffffffffffffffffffffffffffffffffffff1916827bffffffffffffffffffffffffffffffffffffffffffffffffffffffff1916149050919050565b60008073ffffffffffffffffffffffffffffffffffffffff16611a0983611510565b73ffffffffffffffffffffffffffffffffffffffff1614159050919050565b611a3484848484611ec1565b6001811115611a78576040517f08c379a0000000000000000000000000000000000000000000000000000000008152600401611a6f9061377e565b60405180910390fd5b6000829050600073ffffffffffffffffffffffffffffffffffffffff168573ffffffffffffffffffffffffffffffffffffffff1603611abf57611aba81611ec7565b611afe565b8373ffffffffffffffffffffffffffffffffffffffff168573ffffffffffffffffffffffffffffffffffffffff1614611afd57611afc8582611f10565b5b5b600073ffffffffffffffffffffffffffffffffffffffff168473ffffffffffffffffffffffffffffffffffffffff1603611b4057611b3b8161207d565b611b7f565b8473ffffffffffffffffffffffffffffffffffffffff168473ffffffffffffffffffffffffffffffffffffffff1614611b7e57611b7d848261214e565b5b5b5050505050565b50505050565b611b9683836121cd565b611ba36000848484611be7565b611be2576040517f08c379a0000000000000000000000000000000000000000000000000000000008152600401611bd9906136bd565b60405180910390fd5b505050565b6000611c088473ffffffffffffffffffffffffffffffffffffffff166123ea565b15611d61578373ffffffffffffffffffffffffffffffffffffffff1663150b7a02611c31611043565b8786866040518563ffffffff1660e01b8152600401611c5394939291906137f3565b6020604051808303816000875af1925050508015611c8f57506040513d601f19601f82011682018060405250810190611c8c9190613854565b60015b611d11573d8060008114611cbf576040519150601f19603f3d011682016040523d82523d6000602084013e611cc4565b606091505b506000815103611d09576040517f08c379a0000000000000000000000000000000000000000000000000000000008152600401611d00906136bd565b60405180910390fd5b805181602001fd5b63150b7a0260e01b7bffffffffffffffffffffffffffffffffffffffffffffffffffffffff1916817bffffffffffffffffffffffffffffffffffffffffffffffffffffffff191614915050611d66565b600190505b949350505050565b600080600090507a184f03e93ff9f4daa797ed6e38ed64bf6a1f0100000000000000008310611dcc577a184f03e93ff9f4daa797ed6e38ed64bf6a1f0100000000000000008381611dc257611dc16136dd565b5b0492506040810190505b6d04ee2d6d415b85acef81000000008310611e09576d04ee2d6d415b85acef81000000008381611dff57611dfe6136dd565b5b0492506020810190505b662386f26fc100008310611e3857662386f26fc100008381611e2e57611e2d6136dd565b5b0492506010810190505b6305f5e1008310611e61576305f5e1008381611e5757611e566136dd565b5b0492506008810190505b6127108310611e86576127108381611e7c57611e7b6136dd565b5b0492506004810190505b60648310611ea95760648381611e9f57611e9e6136dd565b5b0492506002810190505b600a8310611eb8576001810190505b80915050919050565b50505050565b6008805490506009600083815260200190815260200160002081905550600881908060018154018082558091505060019003906000526020600020016000909190919091505550565b60006001611f1d8461099c565b611f2791906138b0565b905060006007600084815260200190815260200160002054905081811461200c576000600660008673ffffffffffffffffffffffffffffffffffffffff1673ffffffffffffffffffffffffffffffffffffffff168152602001908152602001600020600084815260200190815260200160002054905080600660008773ffffffffffffffffffffffffffffffffffffffff1673ffffffffffffffffffffffffffffffffffffffff168152602001908152602001600020600084815260200190815260200160002081905550816007600083815260200190815260200160002081905550505b6007600084815260200190815260200160002060009055600660008573ffffffffffffffffffffffffffffffffffffffff1673ffffffffffffffffffffffffffffffffffffffff16815260200190815260200160002060008381526020019081526020016000206000905550505050565b6000600160088054905061209191906138b0565b90506000600960008481526020019081526020016000205490506000600883815481106120c1576120c0612e22565b5b9060005260206000200154905080600883815481106120e3576120e2612e22565b5b906000526020600020018190555081600960008381526020019081526020016000208190555060096000858152602001908152602001600020600090556008805480612132576121316138e4565b5b6001900381819060005260206000200160009055905550505050565b60006121598361099c565b905081600660008573ffffffffffffffffffffffffffffffffffffffff1673ffffffffffffffffffffffffffffffffffffffff168152602001908152602001600020600083815260200190815260200160002081905550806007600084815260200190815260200160002081905550505050565b600073ffffffffffffffffffffffffffffffffffffffff168273ffffffffffffffffffffffffffffffffffffffff160361223c576040517f08c379a00000000000000000000000000000000000000000000000000000000081526004016122339061395f565b60405180910390fd5b612245816119e7565b15612285576040517f08c379a000000000000000000000000000000000000000000000000000000000815260040161227c906139cb565b60405180910390fd5b612293600083836001611a28565b61229c816119e7565b156122dc576040517f08c379a00000000000000000000000000000000000000000000000000000000081526004016122d3906139cb565b60405180910390fd5b6001600360008473ffffffffffffffffffffffffffffffffffffffff1673ffffffffffffffffffffffffffffffffffffffff16815260200190815260200160002060008282540192505081905550816002600083815260200190815260200160002060006101000a81548173ffffffffffffffffffffffffffffffffffffffff021916908373ffffffffffffffffffffffffffffffffffffffff160217905550808273ffffffffffffffffffffffffffffffffffffffff16600073ffffffffffffffffffffffffffffffffffffffff167fddf252ad1be2c89b69c2b068fc378daa952ba7f163c4a11628f55a4df523b3ef60405160405180910390a46123e6600083836001611b86565b5050565b6000808273ffffffffffffffffffffffffffffffffffffffff163b119050919050565b6000604051905090565b600080fd5b600080fd5b60007fffffffff0000000000000000000000000000000000000000000000000000000082169050919050565b61245681612421565b811461246157600080fd5b50565b6000813590506124738161244d565b92915050565b60006020828403121561248f5761248e612417565b5b600061249d84828501612464565b91505092915050565b60008115159050919050565b6124bb816124a6565b82525050565b60006020820190506124d660008301846124b2565b92915050565b600081519050919050565b600082825260208201905092915050565b60005b838110156125165780820151818401526020810190506124fb565b60008484015250505050565b6000601f19601f8301169050919050565b600061253e826124dc565b61254881856124e7565b93506125588185602086016124f8565b61256181612522565b840191505092915050565b600060208201905081810360008301526125868184612533565b905092915050565b6000819050919050565b6125a18161258e565b81146125ac57600080fd5b50565b6000813590506125be81612598565b92915050565b6000602082840312156125da576125d9612417565b5b60006125e8848285016125af565b91505092915050565b600073ffffffffffffffffffffffffffffffffffffffff82169050919050565b600061261c826125f1565b9050919050565b61262c81612611565b82525050565b60006020820190506126476000830184612623565b92915050565b61265681612611565b811461266157600080fd5b50565b6000813590506126738161264d565b92915050565b600080604083850312156126905761268f612417565b5b600061269e85828601612664565b92505060206126af858286016125af565b9150509250929050565b6000602082840312156126cf576126ce612417565b5b60006126dd84828501612664565b91505092915050565b6126ef8161258e565b82525050565b600060208201905061270a60008301846126e6565b92915050565b60008060006060848603121561272957612728612417565b5b600061273786828701612664565b935050602061274886828701612664565b9250506040612759868287016125af565b9150509250925092565b600080fd5b600080fd5b7f4e487b7100000000000000000000000000000000000000000000000000000000600052604160045260246000fd5b6127a582612522565b810181811067ffffffffffffffff821117156127c4576127c361276d565b5b80604052505050565b60006127d761240d565b90506127e3828261279c565b919050565b600067ffffffffffffffff8211156128035761280261276d565b5b61280c82612522565b9050602081019050919050565b82818337600083830152505050565b600061283b612836846127e8565b6127cd565b90508281526020810184848401111561285757612856612768565b5b612862848285612819565b509392505050565b600082601f83011261287f5761287e612763565b5b813561288f848260208601612828565b91505092915050565b6000602082840312156128ae576128ad612417565b5b600082013567ffffffffffffffff8111156128cc576128cb61241c565b5b6128d88482850161286a565b91505092915050565b6128ea816124a6565b81146128f557600080fd5b50565b600081359050612907816128e1565b92915050565b6000806040838503121561292457612923612417565b5b600061293285828601612664565b9250506020612943858286016128f8565b9150509250929050565b600067ffffffffffffffff8211156129685761296761276d565b5b61297182612522565b9050602081019050919050565b600061299161298c8461294d565b6127cd565b9050828152602081018484840111156129ad576129ac612768565b5b6129b8848285612819565b509392505050565b600082601f8301126129d5576129d4612763565b5b81356129e584826020860161297e565b91505092915050565b60008060008060808587031215612a0857612a07612417565b5b6000612a1687828801612664565b9450506020612a2787828801612664565b9350506040612a38878288016125af565b925050606085013567ffffffffffffffff811115612a5957612a5861241c565b5b612a65878288016129c0565b91505092959194509250565b60008060408385031215612a8857612a87612417565b5b6000612a9685828601612664565b9250506020612aa785828601612664565b9150509250929050565b600060ff82169050919050565b612ac781612ab1565b82525050565b6000602082019050612ae26000830184612abe565b92915050565b7f4e487b7100000000000000000000000000000000000000000000000000000000600052602260045260246000fd5b60006002820490506001821680612b2f57607f821691505b602082108103612b4257612b41612ae8565b5b50919050565b7f4552433732313a20617070726f76616c20746f2063757272656e74206f776e6560008201527f7200000000000000000000000000000000000000000000000000000000000000602082015250565b6000612ba46021836124e7565b9150612baf82612b48565b604082019050919050565b60006020820190508181036000830152612bd381612b97565b9050919050565b7f4552433732313a20617070726f76652063616c6c6572206973206e6f7420746f60008201527f6b656e206f776e6572206f7220617070726f76656420666f7220616c6c000000602082015250565b6000612c36603d836124e7565b9150612c4182612bda565b604082019050919050565b60006020820190508181036000830152612c6581612c29565b9050919050565b7f4552433732313a2063616c6c6572206973206e6f7420746f6b656e206f776e6560008201527f72206f7220617070726f76656400000000000000000000000000000000000000602082015250565b6000612cc8602d836124e7565b9150612cd382612c6c565b604082019050919050565b60006020820190508181036000830152612cf781612cbb565b9050919050565b7f455243373231456e756d657261626c653a206f776e657220696e646578206f7560008201527f74206f6620626f756e6473000000000000000000000000000000000000000000602082015250565b6000612d5a602b836124e7565b9150612d6582612cfe565b604082019050919050565b60006020820190508181036000830152612d8981612d4d565b9050919050565b7f455243373231456e756d657261626c653a20676c6f62616c20696e646578206f60008201527f7574206f6620626f756e64730000000000000000000000000000000000000000602082015250565b6000612dec602c836124e7565b9150612df782612d90565b604082019050919050565b60006020820190508181036000830152612e1b81612ddf565b9050919050565b7f4e487b7100000000000000000000000000000000000000000000000000000000600052603260045260246000fd5b60008190508160005260206000209050919050565b60006020601f8301049050919050565b600082821b905092915050565b600060088302612eb37fffffffffffffffffffffffffffffffffffffffffffffffffffffffffffffffff82612e76565b612ebd8683612e76565b95508019841693508086168417925050509392505050565b6000819050919050565b6000612efa612ef5612ef08461258e565b612ed5565b61258e565b9050919050565b6000819050919050565b612f1483612edf565b612f28612f2082612f01565b848454612e83565b825550505050565b600090565b612f3d612f30565b612f48818484612f0b565b505050565b5b81811015612f6c57612f61600082612f35565b600181019050612f4e565b5050565b601f821115612fb157612f8281612e51565b612f8b84612e66565b81016020851015612f9a578190505b612fae612fa685612e66565b830182612f4d565b50505b505050565b600082821c905092915050565b6000612fd460001984600802612fb6565b1980831691505092915050565b6000612fed8383612fc3565b9150826002028217905092915050565b613006826124dc565b67ffffffffffffffff81111561301f5761301e61276d565b5b6130298254612b17565b613034828285612f70565b600060209050601f8311600181146130675760008415613055578287015190505b61305f8582612fe1565b8655506130c7565b601f19841661307586612e51565b60005b8281101561309d57848901518255600182019150602085019450602081019050613078565b868310156130ba57848901516130b6601f891682612fc3565b8355505b6001600288020188555050505b505050505050565b7f4552433732313a20696e76616c696420746f6b656e2049440000000000000000600082015250565b60006131056018836124e7565b9150613110826130cf565b602082019050919050565b60006020820190508181036000830152613134816130f8565b9050919050565b7f4552433732313a2061646472657373207a65726f206973206e6f74206120766160008201527f6c6964206f776e65720000000000000000000000000000000000000000000000602082015250565b60006131976029836124e7565b91506131a28261313b565b604082019050919050565b600060208201905081810360008301526131c68161318a565b9050919050565b7f616464726573732063616e6e6f74206265206f66203000000000000000000000600082015250565b60006132036016836124e7565b915061320e826131cd565b602082019050919050565b60006020820190508181036000830152613232816131f6565b9050919050565b7f53656e6465722068617320616c7265616479206265656e2077686974656c697360008201527f7465640000000000000000000000000000000000000000000000000000000000602082015250565b60006132956023836124e7565b91506132a082613239565b604082019050919050565b600060208201905081810360008301526132c481613288565b9050919050565b7f4d6f7265206164647265737365732063616e27742062652061646465642c206c60008201527f696d697420726561636865640000000000000000000000000000000000000000602082015250565b6000613327602c836124e7565b9150613332826132cb565b604082019050919050565b600060208201905081810360008301526133568161331a565b9050919050565b600081905092915050565b6000613373826124dc565b61337d818561335d565b935061338d8185602086016124f8565b80840191505092915050565b60006133a58285613368565b91506133b18284613368565b91508190509392505050565b7f4f776e61626c653a206e6577206f776e657220697320746865207a65726f206160008201527f6464726573730000000000000000000000000000000000000000000000000000602082015250565b60006134196026836124e7565b9150613424826133bd565b604082019050919050565b600060208201905081810360008301526134488161340c565b9050919050565b7f4552433732313a207472616e736665722066726f6d20696e636f72726563742060008201527f6f776e6572000000000000000000000000000000000000000000000000000000602082015250565b60006134ab6025836124e7565b91506134b68261344f565b604082019050919050565b600060208201905081810360008301526134da8161349e565b9050919050565b7f4552433732313a207472616e7366657220746f20746865207a65726f2061646460008201527f7265737300000000000000000000000000000000000000000000000000000000602082015250565b600061353d6024836124e7565b9150613548826134e1565b604082019050919050565b6000602082019050818103600083015261356c81613530565b9050919050565b7f4f776e61626c653a2063616c6c6572206973206e6f7420746865206f776e6572600082015250565b60006135a96020836124e7565b91506135b482613573565b602082019050919050565b600060208201905081810360008301526135d88161359c565b9050919050565b7f4552433732313a20617070726f766520746f2063616c6c657200000000000000600082015250565b60006136156019836124e7565b9150613620826135df565b602082019050919050565b6000602082019050818103600083015261364481613608565b9050919050565b7f4552433732313a207472616e7366657220746f206e6f6e20455243373231526560008201527f63656976657220696d706c656d656e7465720000000000000000000000000000602082015250565b60006136a76032836124e7565b91506136b28261364b565b604082019050919050565b600060208201905081810360008301526136d68161369a565b9050919050565b7f4e487b7100000000000000000000000000000000000000000000000000000000600052601260045260246000fd5b7f455243373231456e756d657261626c653a20636f6e736563757469766520747260008201527f616e7366657273206e6f7420737570706f727465640000000000000000000000602082015250565b60006137686035836124e7565b91506137738261370c565b604082019050919050565b600060208201905081810360008301526137978161375b565b9050919050565b600081519050919050565b600082825260208201905092915050565b60006137c58261379e565b6137cf81856137a9565b93506137df8185602086016124f8565b6137e881612522565b840191505092915050565b60006080820190506138086000830187612623565b6138156020830186612623565b61382260408301856126e6565b818103606083015261383481846137ba565b905095945050505050565b60008151905061384e8161244d565b92915050565b60006020828403121561386a57613869612417565b5b60006138788482850161383f565b91505092915050565b7f4e487b7100000000000000000000000000000000000000000000000000000000600052601160045260246000fd5b60006138bb8261258e565b91506138c68361258e565b92508282039050818111156138de576138dd613881565b5b92915050565b7f4e487b7100000000000000000000000000000000000000000000000000000000600052603160045260246000fd5b7f4552433732313a206d696e7420746f20746865207a65726f2061646472657373600082015250565b60006139496020836124e7565b915061395482613913565b602082019050919050565b600060208201905081810360008301526139788161393c565b9050919050565b7f4552433732313a20746f6b656e20616c7265616479206d696e74656400000000600082015250565b60006139b5601c836124e7565b91506139c08261397f565b602082019050919050565b600060208201905081810360008301526139e4816139a8565b905091905056fea2646970667358221220de2d32dc75fd1717124ccd66fb31bb561d8b9f920961fcb2451a80f3bb15e4fc64736f6c6343000810003368747470733a2f2f697066732e746869726477656263646e2e636f6d2f697066732f62616679626569656b346a666d7a7464676668757072746e6464367a6b6b7a67626a6c73716769676f67676f37686778736b757379327733787471",
  "linkReferences": {},
  "deployedLinkReferences": {}
}