{
  "_format": "hh-sol-artifact-1",
  "contractName": "Premium",
  "sourceName": "contracts/Premium.sol",
  "abi": [
    {
      "inputs": [
        {
          "internalType": "string",
          "name": "baseURI",
          "type": "string"
        },
        {
          "internalType": "uint8",
          "name": "maxWhitelistedAddresses",
          "type": "uint8"
        }
      ],
      "stateMutability": "nonpayable",
      "type": "constructor"
    },
    {
      "anonymous": false,
      "inputs": [
        {
          "indexed": true,
          "internalType": "address",
          "name": "owner",
          "type": "address"
        },
        {
          "indexed": true,
          "internalType": "address",
          "name": "approved",
          "type": "address"
        },
        {
          "indexed": true,
          "internalType": "uint256",
          "name": "tokenId",
          "type": "uint256"
        }
      ],
      "name": "Approval",
      "type": "event"
    },
    {
      "anonymous": false,
      "inputs": [
        {
          "indexed": true,
          "internalType": "address",
          "name": "owner",
          "type": "address"
        },
        {
          "indexed": true,
          "internalType": "address",
          "name": "operator",
          "type": "address"
        },
        {
          "indexed": false,
          "internalType": "bool",
          "name": "approved",
          "type": "bool"
        }
      ],
      "name": "ApprovalForAll",
      "type": "event"
    },
    {
      "anonymous": false,
      "inputs": [
        {
          "indexed": true,
          "internalType": "address",
          "name": "previousOwner",
          "type": "address"
        },
        {
          "indexed": true,
          "internalType": "address",
          "name": "newOwner",
          "type": "address"
        }
      ],
      "name": "OwnershipTransferred",
      "type": "event"
    },
    {
      "anonymous": false,
      "inputs": [
        {
          "indexed": true,
          "internalType": "address",
          "name": "from",
          "type": "address"
        },
        {
          "indexed": true,
          "internalType": "address",
          "name": "to",
          "type": "address"
        },
        {
          "indexed": true,
          "internalType": "uint256",
          "name": "tokenId",
          "type": "uint256"
        }
      ],
      "name": "Transfer",
      "type": "event"
    },
    {
      "inputs": [],
      "name": "addAddressToWhitelist",
      "outputs": [],
      "stateMutability": "nonpayable",
      "type": "function"
    },
    {
      "inputs": [
        {
          "internalType": "address",
          "name": "to",
          "type": "address"
        },
        {
          "internalType": "uint256",
          "name": "tokenId",
          "type": "uint256"
        }
      ],
      "name": "approve",
      "outputs": [],
      "stateMutability": "nonpayable",
      "type": "function"
    },
    {
      "inputs": [
        {
          "internalType": "address",
          "name": "owner",
          "type": "address"
        }
      ],
      "name": "balanceOf",
      "outputs": [
        {
          "internalType": "uint256",
          "name": "",
          "type": "uint256"
        }
      ],
      "stateMutability": "view",
      "type": "function"
    },
    {
      "inputs": [
        {
          "internalType": "uint256",
          "name": "tokenId",
          "type": "uint256"
        }
      ],
      "name": "getApproved",
      "outputs": [
        {
          "internalType": "address",
          "name": "",
          "type": "address"
        }
      ],
      "stateMutability": "view",
      "type": "function"
    },
    {
      "inputs": [],
      "name": "getMaxWhitelistedAddresses",
      "outputs": [
        {
          "internalType": "uint8",
          "name": "",
          "type": "uint8"
        }
      ],
      "stateMutability": "view",
      "type": "function"
    },
    {
      "inputs": [],
      "name": "getNumAddressesWhitelisted",
      "outputs": [
        {
          "internalType": "uint256",
          "name": "",
          "type": "uint256"
        }
      ],
      "stateMutability": "view",
      "type": "function"
    },
    {
      "inputs": [
        {
          "internalType": "address",
          "name": "addr",
          "type": "address"
        }
      ],
      "name": "isAddressWhitelisted",
      "outputs": [
        {
          "internalType": "bool",
          "name": "",
          "type": "bool"
        }
      ],
      "stateMutability": "view",
      "type": "function"
    },
    {
      "inputs": [
        {
          "internalType": "address",
          "name": "owner",
          "type": "address"
        },
        {
          "internalType": "address",
          "name": "operator",
          "type": "address"
        }
      ],
      "name": "isApprovedForAll",
      "outputs": [
        {
          "internalType": "bool",
          "name": "",
          "type": "bool"
        }
      ],
      "stateMutability": "view",
      "type": "function"
    },
    {
      "inputs": [],
      "name": "name",
      "outputs": [
        {
          "internalType": "string",
          "name": "",
          "type": "string"
        }
      ],
      "stateMutability": "view",
      "type": "function"
    },
    {
      "inputs": [],
      "name": "owner",
      "outputs": [
        {
          "internalType": "address",
          "name": "",
          "type": "address"
        }
      ],
      "stateMutability": "view",
      "type": "function"
    },
    {
      "inputs": [
        {
          "internalType": "uint256",
          "name": "tokenId",
          "type": "uint256"
        }
      ],
      "name": "ownerOf",
      "outputs": [
        {
          "internalType": "address",
          "name": "",
          "type": "address"
        }
      ],
      "stateMutability": "view",
      "type": "function"
    },
    {
      "inputs": [],
      "name": "renounceOwnership",
      "outputs": [],
      "stateMutability": "nonpayable",
      "type": "function"
    },
    {
      "inputs": [
        {
          "internalType": "address",
          "name": "from",
          "type": "address"
        },
        {
          "internalType": "address",
          "name": "to",
          "type": "address"
        },
        {
          "internalType": "uint256",
          "name": "tokenId",
          "type": "uint256"
        }
      ],
      "name": "safeTransferFrom",
      "outputs": [],
      "stateMutability": "nonpayable",
      "type": "function"
    },
    {
      "inputs": [
        {
          "internalType": "address",
          "name": "from",
          "type": "address"
        },
        {
          "internalType": "address",
          "name": "to",
          "type": "address"
        },
        {
          "internalType": "uint256",
          "name": "tokenId",
          "type": "uint256"
        },
        {
          "internalType": "bytes",
          "name": "data",
          "type": "bytes"
        }
      ],
      "name": "safeTransferFrom",
      "outputs": [],
      "stateMutability": "nonpayable",
      "type": "function"
    },
    {
      "inputs": [
        {
          "internalType": "address",
          "name": "operator",
          "type": "address"
        },
        {
          "internalType": "bool",
          "name": "approved",
          "type": "bool"
        }
      ],
      "name": "setApprovalForAll",
      "outputs": [],
      "stateMutability": "nonpayable",
      "type": "function"
    },
    {
      "inputs": [
        {
          "internalType": "string",
          "name": "baseURI",
          "type": "string"
        }
      ],
      "name": "setBaseURI",
      "outputs": [],
      "stateMutability": "nonpayable",
      "type": "function"
    },
    {
      "inputs": [
        {
          "internalType": "bytes4",
          "name": "interfaceId",
          "type": "bytes4"
        }
      ],
      "name": "supportsInterface",
      "outputs": [
        {
          "internalType": "bool",
          "name": "",
          "type": "bool"
        }
      ],
      "stateMutability": "view",
      "type": "function"
    },
    {
      "inputs": [],
      "name": "symbol",
      "outputs": [
        {
          "internalType": "string",
          "name": "",
          "type": "string"
        }
      ],
      "stateMutability": "view",
      "type": "function"
    },
    {
      "inputs": [
        {
          "internalType": "uint256",
          "name": "index",
          "type": "uint256"
        }
      ],
      "name": "tokenByIndex",
      "outputs": [
        {
          "internalType": "uint256",
          "name": "",
          "type": "uint256"
        }
      ],
      "stateMutability": "view",
      "type": "function"
    },
    {
      "inputs": [
        {
          "internalType": "address",
          "name": "owner",
          "type": "address"
        },
        {
          "internalType": "uint256",
          "name": "index",
          "type": "uint256"
        }
      ],
      "name": "tokenOfOwnerByIndex",
      "outputs": [
        {
          "internalType": "uint256",
          "name": "",
          "type": "uint256"
        }
      ],
      "stateMutability": "view",
      "type": "function"
    },
    {
      "inputs": [
        {
          "internalType": "uint256",
          "name": "tokenId",
          "type": "uint256"
        }
      ],
      "name": "tokenURI",
      "outputs": [
        {
          "internalType": "string",
          "name": "",
          "type": "string"
        }
      ],
      "stateMutability": "view",
      "type": "function"
    },
    {
      "inputs": [],
      "name": "totalSupply",
      "outputs": [
        {
          "internalType": "uint256",
          "name": "",
          "type": "uint256"
        }
      ],
      "stateMutability": "view",
      "type": "function"
    },
    {
      "inputs": [
        {
          "internalType": "address",
          "name": "from",
          "type": "address"
        },
        {
          "internalType": "address",
          "name": "to",
          "type": "address"
        },
        {
          "internalType": "uint256",
          "name": "tokenId",
          "type": "uint256"
        }
      ],
      "name": "transferFrom",
      "outputs": [],
      "stateMutability": "nonpayable",
      "type": "function"
    },
    {
      "inputs": [
        {
          "internalType": "address",
          "name": "newOwner",
          "type": "address"
        }
      ],
      "name": "transferOwnership",
      "outputs": [],
      "stateMutability": "nonpayable",
      "type": "function"
    }
  ],
  "bytecode": "0x60806040523480156200001157600080fd5b50604051620040ab380380620040ab8339818101604052810190620000379190620003bd565b6040518060400160405280601881526020017f426c6f636b636861696e20436f6e7363696f75736e65737300000000000000008152506040518060400160405280600281526020017f42430000000000000000000000000000000000000000000000000000000000008152508160009081620000b491906200066e565b508060019081620000c691906200066e565b505050620000e9620000dd6200011e60201b60201c565b6200012660201b60201c565b81600b9081620000fa91906200066e565b5080600c60006101000a81548160ff021916908360ff160217905550505062000755565b600033905090565b6000600a60009054906101000a900473ffffffffffffffffffffffffffffffffffffffff16905081600a60006101000a81548173ffffffffffffffffffffffffffffffffffffffff021916908373ffffffffffffffffffffffffffffffffffffffff1602179055508173ffffffffffffffffffffffffffffffffffffffff168173ffffffffffffffffffffffffffffffffffffffff167f8be0079c531659141344cd1fd0a4f28419497f9722a3daafe3b4186f6b6457e060405160405180910390a35050565b6000604051905090565b600080fd5b600080fd5b600080fd5b600080fd5b6000601f19601f8301169050919050565b7f4e487b7100000000000000000000000000000000000000000000000000000000600052604160045260246000fd5b62000255826200020a565b810181811067ffffffffffffffff821117156200027757620002766200021b565b5b80604052505050565b60006200028c620001ec565b90506200029a82826200024a565b919050565b600067ffffffffffffffff821115620002bd57620002bc6200021b565b5b620002c8826200020a565b9050602081019050919050565b60005b83811015620002f5578082015181840152602081019050620002d8565b60008484015250505050565b60006200031862000312846200029f565b62000280565b90508281526020810184848401111562000337576200033662000205565b5b62000344848285620002d5565b509392505050565b600082601f83011262000364576200036362000200565b5b81516200037684826020860162000301565b91505092915050565b600060ff82169050919050565b62000397816200037f565b8114620003a357600080fd5b50565b600081519050620003b7816200038c565b92915050565b60008060408385031215620003d757620003d6620001f6565b5b600083015167ffffffffffffffff811115620003f857620003f7620001fb565b5b62000406858286016200034c565b92505060206200041985828601620003a6565b9150509250929050565b600081519050919050565b7f4e487b7100000000000000000000000000000000000000000000000000000000600052602260045260246000fd5b600060028204905060018216806200047657607f821691505b6020821081036200048c576200048b6200042e565b5b50919050565b60008190508160005260206000209050919050565b60006020601f8301049050919050565b600082821b905092915050565b600060088302620004f67fffffffffffffffffffffffffffffffffffffffffffffffffffffffffffffffff82620004b7565b620005028683620004b7565b95508019841693508086168417925050509392505050565b6000819050919050565b6000819050919050565b60006200054f6200054962000543846200051a565b62000524565b6200051a565b9050919050565b6000819050919050565b6200056b836200052e565b620005836200057a8262000556565b848454620004c4565b825550505050565b600090565b6200059a6200058b565b620005a781848462000560565b505050565b5b81811015620005cf57620005c360008262000590565b600181019050620005ad565b5050565b601f8211156200061e57620005e88162000492565b620005f384620004a7565b8101602085101562000603578190505b6200061b6200061285620004a7565b830182620005ac565b50505b505050565b600082821c905092915050565b6000620006436000198460080262000623565b1980831691505092915050565b60006200065e838362000630565b9150826002028217905092915050565b620006798262000423565b67ffffffffffffffff8111156200069557620006946200021b565b5b620006a182546200045d565b620006ae828285620005d3565b600060209050601f831160018114620006e65760008415620006d1578287015190505b620006dd858262000650565b8655506200074d565b601f198416620006f68662000492565b60005b828110156200072057848901518255600182019150602085019450602081019050620006f9565b868310156200074057848901516200073c601f89168262000630565b8355505b6001600288020188555050505b505050505050565b61394680620007656000396000f3fe608060405234801561001057600080fd5b50600436106101585760003560e01c806370a08231116100c3578063b88d4fde1161007c578063b88d4fde146103c5578063c87b56dd146103e1578063e985e9c514610411578063ef87fa0814610441578063f2fde38b1461045f578063f6d974091461047b57610158565b806370a0823114610329578063715018a6146103595780638da5cb5b146103635780638e7314d91461038157806395d89b411461038b578063a22cb465146103a957610158565b806323b872dd1161011557806323b872dd146102455780632f745c591461026157806342842e0e146102915780634f6ccce7146102ad57806355f804b3146102dd5780636352211e146102f957610158565b806301ffc9a71461015d57806306fdde031461018d578063081812fc146101ab578063095ea7b3146101db57806313f44d10146101f757806318160ddd14610227575b600080fd5b6101776004803603810190610172919061240a565b610499565b6040516101849190612452565b60405180910390f35b610195610513565b6040516101a291906124fd565b60405180910390f35b6101c560048036038101906101c09190612555565b6105a5565b6040516101d291906125c3565b60405180910390f35b6101f560048036038101906101f0919061260a565b6105eb565b005b610211600480360381019061020c919061264a565b610702565b60405161021e9190612452565b60405180910390f35b61022f610758565b60405161023c9190612686565b60405180910390f35b61025f600480360381019061025a91906126a1565b610765565b005b61027b6004803603810190610276919061260a565b6107c5565b6040516102889190612686565b60405180910390f35b6102ab60048036038101906102a691906126a1565b61086a565b005b6102c760048036038101906102c29190612555565b61088a565b6040516102d49190612686565b60405180910390f35b6102f760048036038101906102f29190612829565b6108fb565b005b610313600480360381019061030e9190612555565b610916565b60405161032091906125c3565b60405180910390f35b610343600480360381019061033e919061264a565b61099c565b6040516103509190612686565b60405180910390f35b610361610a53565b005b61036b610a67565b60405161037891906125c3565b60405180910390f35b610389610a91565b005b610393610bf6565b6040516103a091906124fd565b60405180910390f35b6103c360048036038101906103be919061289e565b610c88565b005b6103df60048036038101906103da919061297f565b610c9e565b005b6103fb60048036038101906103f69190612555565b610d00565b60405161040891906124fd565b60405180910390f35b61042b60048036038101906104269190612a02565b610d68565b6040516104389190612452565b60405180910390f35b610449610dfc565b6040516104569190612a5e565b60405180910390f35b6104796004803603810190610474919061264a565b610e13565b005b610483610e96565b6040516104909190612686565b60405180910390f35b60007f780e9d63000000000000000000000000000000000000000000000000000000007bffffffffffffffffffffffffffffffffffffffffffffffffffffffff1916827bffffffffffffffffffffffffffffffffffffffffffffffffffffffff1916148061050c575061050b82610ea7565b5b9050919050565b60606000805461052290612aa8565b80601f016020809104026020016040519081016040528092919081815260200182805461054e90612aa8565b801561059b5780601f106105705761010080835404028352916020019161059b565b820191906000526020600020905b81548152906001019060200180831161057e57829003601f168201915b5050505050905090565b60006105b082610f89565b6004600083815260200190815260200160002060009054906101000a900473ffffffffffffffffffffffffffffffffffffffff169050919050565b60006105f682610916565b90508073ffffffffffffffffffffffffffffffffffffffff168373ffffffffffffffffffffffffffffffffffffffff1603610666576040517f08c379a000000000000000000000000000000000000000000000000000000000815260040161065d90612b4b565b60405180910390fd5b8073ffffffffffffffffffffffffffffffffffffffff16610685610fd4565b73ffffffffffffffffffffffffffffffffffffffff1614806106b457506106b3816106ae610fd4565b610d68565b5b6106f3576040517f08c379a00000000000000000000000000000000000000000000000000000000081526004016106ea90612bdd565b60405180910390fd5b6106fd8383610fdc565b505050565b6000600e60008373ffffffffffffffffffffffffffffffffffffffff1673ffffffffffffffffffffffffffffffffffffffff16815260200190815260200160002060009054906101000a900460ff169050919050565b6000600880549050905090565b610776610770610fd4565b82611095565b6107b5576040517f08c379a00000000000000000000000000000000000000000000000000000000081526004016107ac90612c6f565b60405180910390fd5b6107c083838361112a565b505050565b60006107d08361099c565b8210610811576040517f08c379a000000000000000000000000000000000000000000000000000000000815260040161080890612d01565b60405180910390fd5b600660008473ffffffffffffffffffffffffffffffffffffffff1673ffffffffffffffffffffffffffffffffffffffff168152602001908152602001600020600083815260200190815260200160002054905092915050565b61088583838360405180602001604052806000815250610c9e565b505050565b6000610894610758565b82106108d5576040517f08c379a00000000000000000000000000000000000000000000000000000000081526004016108cc90612d93565b60405180910390fd5b600882815481106108e9576108e8612db3565b5b90600052602060002001549050919050565b610903611423565b80600b90816109129190612f8e565b5050565b600080610922836114a1565b9050600073ffffffffffffffffffffffffffffffffffffffff168173ffffffffffffffffffffffffffffffffffffffff1603610993576040517f08c379a000000000000000000000000000000000000000000000000000000000815260040161098a906130ac565b60405180910390fd5b80915050919050565b60008073ffffffffffffffffffffffffffffffffffffffff168273ffffffffffffffffffffffffffffffffffffffff1603610a0c576040517f08c379a0000000000000000000000000000000000000000000000000000000008152600401610a039061313e565b60405180910390fd5b600360008373ffffffffffffffffffffffffffffffffffffffff1673ffffffffffffffffffffffffffffffffffffffff168152602001908152602001600020549050919050565b610a5b611423565b610a6560006114de565b565b6000600a60009054906101000a900473ffffffffffffffffffffffffffffffffffffffff16905090565b600e60003373ffffffffffffffffffffffffffffffffffffffff1673ffffffffffffffffffffffffffffffffffffffff16815260200190815260200160002060009054906101000a900460ff1615610b1e576040517f08c379a0000000000000000000000000000000000000000000000000000000008152600401610b15906131d0565b60405180910390fd5b600c60009054906101000a900460ff1660ff16610b39610758565b10610b79576040517f08c379a0000000000000000000000000000000000000000000000000000000008152600401610b7090613262565b60405180910390fd5b610b83600d6115a4565b6000610b8f600d6115ba565b9050610b9b33826115c8565b6001600e60003373ffffffffffffffffffffffffffffffffffffffff1673ffffffffffffffffffffffffffffffffffffffff16815260200190815260200160002060006101000a81548160ff02191690831515021790555050565b606060018054610c0590612aa8565b80601f0160208091040260200160405190810160405280929190818152602001828054610c3190612aa8565b8015610c7e5780601f10610c5357610100808354040283529160200191610c7e565b820191906000526020600020905b815481529060010190602001808311610c6157829003601f168201915b5050505050905090565b610c9a610c93610fd4565b83836115e6565b5050565b610caf610ca9610fd4565b83611095565b610cee576040517f08c379a0000000000000000000000000000000000000000000000000000000008152600401610ce590612c6f565b60405180910390fd5b610cfa84848484611752565b50505050565b6060610d0b82610f89565b6000610d156117ae565b90506000815111610d355760405180602001604052806000815250610d60565b80610d3f84611840565b604051602001610d509291906132be565b6040516020818303038152906040525b915050919050565b6000600560008473ffffffffffffffffffffffffffffffffffffffff1673ffffffffffffffffffffffffffffffffffffffff16815260200190815260200160002060008373ffffffffffffffffffffffffffffffffffffffff1673ffffffffffffffffffffffffffffffffffffffff16815260200190815260200160002060009054906101000a900460ff16905092915050565b6000600c60009054906101000a900460ff16905090565b610e1b611423565b600073ffffffffffffffffffffffffffffffffffffffff168173ffffffffffffffffffffffffffffffffffffffff1603610e8a576040517f08c379a0000000000000000000000000000000000000000000000000000000008152600401610e8190613354565b60405180910390fd5b610e93816114de565b50565b6000610ea2600d6115ba565b905090565b60007f80ac58cd000000000000000000000000000000000000000000000000000000007bffffffffffffffffffffffffffffffffffffffffffffffffffffffff1916827bffffffffffffffffffffffffffffffffffffffffffffffffffffffff19161480610f7257507f5b5e139f000000000000000000000000000000000000000000000000000000007bffffffffffffffffffffffffffffffffffffffffffffffffffffffff1916827bffffffffffffffffffffffffffffffffffffffffffffffffffffffff1916145b80610f825750610f818261190e565b5b9050919050565b610f9281611978565b610fd1576040517f08c379a0000000000000000000000000000000000000000000000000000000008152600401610fc8906130ac565b60405180910390fd5b50565b600033905090565b816004600083815260200190815260200160002060006101000a81548173ffffffffffffffffffffffffffffffffffffffff021916908373ffffffffffffffffffffffffffffffffffffffff160217905550808273ffffffffffffffffffffffffffffffffffffffff1661104f83610916565b73ffffffffffffffffffffffffffffffffffffffff167f8c5be1e5ebec7d5bd14f71427d1e84f3dd0314c0f7b2291e5b200ac8c7c3b92560405160405180910390a45050565b6000806110a183610916565b90508073ffffffffffffffffffffffffffffffffffffffff168473ffffffffffffffffffffffffffffffffffffffff1614806110e357506110e28185610d68565b5b8061112157508373ffffffffffffffffffffffffffffffffffffffff16611109846105a5565b73ffffffffffffffffffffffffffffffffffffffff16145b91505092915050565b8273ffffffffffffffffffffffffffffffffffffffff1661114a82610916565b73ffffffffffffffffffffffffffffffffffffffff16146111a0576040517f08c379a0000000000000000000000000000000000000000000000000000000008152600401611197906133e6565b60405180910390fd5b600073ffffffffffffffffffffffffffffffffffffffff168273ffffffffffffffffffffffffffffffffffffffff160361120f576040517f08c379a000000000000000000000000000000000000000000000000000000000815260040161120690613478565b60405180910390fd5b61121c83838360016119b9565b8273ffffffffffffffffffffffffffffffffffffffff1661123c82610916565b73ffffffffffffffffffffffffffffffffffffffff1614611292576040517f08c379a0000000000000000000000000000000000000000000000000000000008152600401611289906133e6565b60405180910390fd5b6004600082815260200190815260200160002060006101000a81549073ffffffffffffffffffffffffffffffffffffffff02191690556001600360008573ffffffffffffffffffffffffffffffffffffffff1673ffffffffffffffffffffffffffffffffffffffff168152602001908152602001600020600082825403925050819055506001600360008473ffffffffffffffffffffffffffffffffffffffff1673ffffffffffffffffffffffffffffffffffffffff16815260200190815260200160002060008282540192505081905550816002600083815260200190815260200160002060006101000a81548173ffffffffffffffffffffffffffffffffffffffff021916908373ffffffffffffffffffffffffffffffffffffffff160217905550808273ffffffffffffffffffffffffffffffffffffffff168473ffffffffffffffffffffffffffffffffffffffff167fddf252ad1be2c89b69c2b068fc378daa952ba7f163c4a11628f55a4df523b3ef60405160405180910390a461141e8383836001611b17565b505050565b61142b610fd4565b73ffffffffffffffffffffffffffffffffffffffff16611449610a67565b73ffffffffffffffffffffffffffffffffffffffff161461149f576040517f08c379a0000000000000000000000000000000000000000000000000000000008152600401611496906134e4565b60405180910390fd5b565b60006002600083815260200190815260200160002060009054906101000a900473ffffffffffffffffffffffffffffffffffffffff169050919050565b6000600a60009054906101000a900473ffffffffffffffffffffffffffffffffffffffff16905081600a60006101000a81548173ffffffffffffffffffffffffffffffffffffffff021916908373ffffffffffffffffffffffffffffffffffffffff1602179055508173ffffffffffffffffffffffffffffffffffffffff168173ffffffffffffffffffffffffffffffffffffffff167f8be0079c531659141344cd1fd0a4f28419497f9722a3daafe3b4186f6b6457e060405160405180910390a35050565b6001816000016000828254019250508190555050565b600081600001549050919050565b6115e2828260405180602001604052806000815250611b1d565b5050565b8173ffffffffffffffffffffffffffffffffffffffff168373ffffffffffffffffffffffffffffffffffffffff1603611654576040517f08c379a000000000000000000000000000000000000000000000000000000000815260040161164b90613550565b60405180910390fd5b80600560008573ffffffffffffffffffffffffffffffffffffffff1673ffffffffffffffffffffffffffffffffffffffff16815260200190815260200160002060008473ffffffffffffffffffffffffffffffffffffffff1673ffffffffffffffffffffffffffffffffffffffff16815260200190815260200160002060006101000a81548160ff0219169083151502179055508173ffffffffffffffffffffffffffffffffffffffff168373ffffffffffffffffffffffffffffffffffffffff167f17307eab39ab6107e8899845ad3d59bd9653f200f220920489ca2b5937696c31836040516117459190612452565b60405180910390a3505050565b61175d84848461112a565b61176984848484611b78565b6117a8576040517f08c379a000000000000000000000000000000000000000000000000000000000815260040161179f906135e2565b60405180910390fd5b50505050565b6060600b80546117bd90612aa8565b80601f01602080910402602001604051908101604052809291908181526020018280546117e990612aa8565b80156118365780601f1061180b57610100808354040283529160200191611836565b820191906000526020600020905b81548152906001019060200180831161181957829003601f168201915b5050505050905090565b60606000600161184f84611cff565b01905060008167ffffffffffffffff81111561186e5761186d6126fe565b5b6040519080825280601f01601f1916602001820160405280156118a05781602001600182028036833780820191505090505b509050600082602001820190505b600115611903578080600190039150507f3031323334353637383961626364656600000000000000000000000000000000600a86061a8153600a85816118f7576118f6613602565b5b049450600085036118ae575b819350505050919050565b60007f01ffc9a7000000000000000000000000000000000000000000000000000000007bffffffffffffffffffffffffffffffffffffffffffffffffffffffff1916827bffffffffffffffffffffffffffffffffffffffffffffffffffffffff1916149050919050565b60008073ffffffffffffffffffffffffffffffffffffffff1661199a836114a1565b73ffffffffffffffffffffffffffffffffffffffff1614159050919050565b6119c584848484611e52565b6001811115611a09576040517f08c379a0000000000000000000000000000000000000000000000000000000008152600401611a00906136a3565b60405180910390fd5b6000829050600073ffffffffffffffffffffffffffffffffffffffff168573ffffffffffffffffffffffffffffffffffffffff1603611a5057611a4b81611e58565b611a8f565b8373ffffffffffffffffffffffffffffffffffffffff168573ffffffffffffffffffffffffffffffffffffffff1614611a8e57611a8d8582611ea1565b5b5b600073ffffffffffffffffffffffffffffffffffffffff168473ffffffffffffffffffffffffffffffffffffffff1603611ad157611acc8161200e565b611b10565b8473ffffffffffffffffffffffffffffffffffffffff168473ffffffffffffffffffffffffffffffffffffffff1614611b0f57611b0e84826120df565b5b5b5050505050565b50505050565b611b27838361215e565b611b346000848484611b78565b611b73576040517f08c379a0000000000000000000000000000000000000000000000000000000008152600401611b6a906135e2565b60405180910390fd5b505050565b6000611b998473ffffffffffffffffffffffffffffffffffffffff1661237b565b15611cf2578373ffffffffffffffffffffffffffffffffffffffff1663150b7a02611bc2610fd4565b8786866040518563ffffffff1660e01b8152600401611be49493929190613718565b6020604051808303816000875af1925050508015611c2057506040513d601f19601f82011682018060405250810190611c1d9190613779565b60015b611ca2573d8060008114611c50576040519150601f19603f3d011682016040523d82523d6000602084013e611c55565b606091505b506000815103611c9a576040517f08c379a0000000000000000000000000000000000000000000000000000000008152600401611c91906135e2565b60405180910390fd5b805181602001fd5b63150b7a0260e01b7bffffffffffffffffffffffffffffffffffffffffffffffffffffffff1916817bffffffffffffffffffffffffffffffffffffffffffffffffffffffff191614915050611cf7565b600190505b949350505050565b600080600090507a184f03e93ff9f4daa797ed6e38ed64bf6a1f0100000000000000008310611d5d577a184f03e93ff9f4daa797ed6e38ed64bf6a1f0100000000000000008381611d5357611d52613602565b5b0492506040810190505b6d04ee2d6d415b85acef81000000008310611d9a576d04ee2d6d415b85acef81000000008381611d9057611d8f613602565b5b0492506020810190505b662386f26fc100008310611dc957662386f26fc100008381611dbf57611dbe613602565b5b0492506010810190505b6305f5e1008310611df2576305f5e1008381611de857611de7613602565b5b0492506008810190505b6127108310611e17576127108381611e0d57611e0c613602565b5b0492506004810190505b60648310611e3a5760648381611e3057611e2f613602565b5b0492506002810190505b600a8310611e49576001810190505b80915050919050565b50505050565b6008805490506009600083815260200190815260200160002081905550600881908060018154018082558091505060019003906000526020600020016000909190919091505550565b60006001611eae8461099c565b611eb891906137d5565b9050600060076000848152602001908152602001600020549050818114611f9d576000600660008673ffffffffffffffffffffffffffffffffffffffff1673ffffffffffffffffffffffffffffffffffffffff168152602001908152602001600020600084815260200190815260200160002054905080600660008773ffffffffffffffffffffffffffffffffffffffff1673ffffffffffffffffffffffffffffffffffffffff168152602001908152602001600020600084815260200190815260200160002081905550816007600083815260200190815260200160002081905550505b6007600084815260200190815260200160002060009055600660008573ffffffffffffffffffffffffffffffffffffffff1673ffffffffffffffffffffffffffffffffffffffff16815260200190815260200160002060008381526020019081526020016000206000905550505050565b6000600160088054905061202291906137d5565b905060006009600084815260200190815260200160002054905060006008838154811061205257612051612db3565b5b90600052602060002001549050806008838154811061207457612073612db3565b5b9060005260206000200181905550816009600083815260200190815260200160002081905550600960008581526020019081526020016000206000905560088054806120c3576120c2613809565b5b6001900381819060005260206000200160009055905550505050565b60006120ea8361099c565b905081600660008573ffffffffffffffffffffffffffffffffffffffff1673ffffffffffffffffffffffffffffffffffffffff168152602001908152602001600020600083815260200190815260200160002081905550806007600084815260200190815260200160002081905550505050565b600073ffffffffffffffffffffffffffffffffffffffff168273ffffffffffffffffffffffffffffffffffffffff16036121cd576040517f08c379a00000000000000000000000000000000000000000000000000000000081526004016121c490613884565b60405180910390fd5b6121d681611978565b15612216576040517f08c379a000000000000000000000000000000000000000000000000000000000815260040161220d906138f0565b60405180910390fd5b6122246000838360016119b9565b61222d81611978565b1561226d576040517f08c379a0000000000000000000000000000000000000000000000000000000008152600401612264906138f0565b60405180910390fd5b6001600360008473ffffffffffffffffffffffffffffffffffffffff1673ffffffffffffffffffffffffffffffffffffffff16815260200190815260200160002060008282540192505081905550816002600083815260200190815260200160002060006101000a81548173ffffffffffffffffffffffffffffffffffffffff021916908373ffffffffffffffffffffffffffffffffffffffff160217905550808273ffffffffffffffffffffffffffffffffffffffff16600073ffffffffffffffffffffffffffffffffffffffff167fddf252ad1be2c89b69c2b068fc378daa952ba7f163c4a11628f55a4df523b3ef60405160405180910390a4612377600083836001611b17565b5050565b6000808273ffffffffffffffffffffffffffffffffffffffff163b119050919050565b6000604051905090565b600080fd5b600080fd5b60007fffffffff0000000000000000000000000000000000000000000000000000000082169050919050565b6123e7816123b2565b81146123f257600080fd5b50565b600081359050612404816123de565b92915050565b6000602082840312156124205761241f6123a8565b5b600061242e848285016123f5565b91505092915050565b60008115159050919050565b61244c81612437565b82525050565b60006020820190506124676000830184612443565b92915050565b600081519050919050565b600082825260208201905092915050565b60005b838110156124a757808201518184015260208101905061248c565b60008484015250505050565b6000601f19601f8301169050919050565b60006124cf8261246d565b6124d98185612478565b93506124e9818560208601612489565b6124f2816124b3565b840191505092915050565b6000602082019050818103600083015261251781846124c4565b905092915050565b6000819050919050565b6125328161251f565b811461253d57600080fd5b50565b60008135905061254f81612529565b92915050565b60006020828403121561256b5761256a6123a8565b5b600061257984828501612540565b91505092915050565b600073ffffffffffffffffffffffffffffffffffffffff82169050919050565b60006125ad82612582565b9050919050565b6125bd816125a2565b82525050565b60006020820190506125d860008301846125b4565b92915050565b6125e7816125a2565b81146125f257600080fd5b50565b600081359050612604816125de565b92915050565b60008060408385031215612621576126206123a8565b5b600061262f858286016125f5565b925050602061264085828601612540565b9150509250929050565b6000602082840312156126605761265f6123a8565b5b600061266e848285016125f5565b91505092915050565b6126808161251f565b82525050565b600060208201905061269b6000830184612677565b92915050565b6000806000606084860312156126ba576126b96123a8565b5b60006126c8868287016125f5565b93505060206126d9868287016125f5565b92505060406126ea86828701612540565b9150509250925092565b600080fd5b600080fd5b7f4e487b7100000000000000000000000000000000000000000000000000000000600052604160045260246000fd5b612736826124b3565b810181811067ffffffffffffffff82111715612755576127546126fe565b5b80604052505050565b600061276861239e565b9050612774828261272d565b919050565b600067ffffffffffffffff821115612794576127936126fe565b5b61279d826124b3565b9050602081019050919050565b82818337600083830152505050565b60006127cc6127c784612779565b61275e565b9050828152602081018484840111156127e8576127e76126f9565b5b6127f38482856127aa565b509392505050565b600082601f8301126128105761280f6126f4565b5b81356128208482602086016127b9565b91505092915050565b60006020828403121561283f5761283e6123a8565b5b600082013567ffffffffffffffff81111561285d5761285c6123ad565b5b612869848285016127fb565b91505092915050565b61287b81612437565b811461288657600080fd5b50565b60008135905061289881612872565b92915050565b600080604083850312156128b5576128b46123a8565b5b60006128c3858286016125f5565b92505060206128d485828601612889565b9150509250929050565b600067ffffffffffffffff8211156128f9576128f86126fe565b5b612902826124b3565b9050602081019050919050565b600061292261291d846128de565b61275e565b90508281526020810184848401111561293e5761293d6126f9565b5b6129498482856127aa565b509392505050565b600082601f830112612966576129656126f4565b5b813561297684826020860161290f565b91505092915050565b60008060008060808587031215612999576129986123a8565b5b60006129a7878288016125f5565b94505060206129b8878288016125f5565b93505060406129c987828801612540565b925050606085013567ffffffffffffffff8111156129ea576129e96123ad565b5b6129f687828801612951565b91505092959194509250565b60008060408385031215612a1957612a186123a8565b5b6000612a27858286016125f5565b9250506020612a38858286016125f5565b9150509250929050565b600060ff82169050919050565b612a5881612a42565b82525050565b6000602082019050612a736000830184612a4f565b92915050565b7f4e487b7100000000000000000000000000000000000000000000000000000000600052602260045260246000fd5b60006002820490506001821680612ac057607f821691505b602082108103612ad357612ad2612a79565b5b50919050565b7f4552433732313a20617070726f76616c20746f2063757272656e74206f776e6560008201527f7200000000000000000000000000000000000000000000000000000000000000602082015250565b6000612b35602183612478565b9150612b4082612ad9565b604082019050919050565b60006020820190508181036000830152612b6481612b28565b9050919050565b7f4552433732313a20617070726f76652063616c6c6572206973206e6f7420746f60008201527f6b656e206f776e6572206f7220617070726f76656420666f7220616c6c000000602082015250565b6000612bc7603d83612478565b9150612bd282612b6b565b604082019050919050565b60006020820190508181036000830152612bf681612bba565b9050919050565b7f4552433732313a2063616c6c6572206973206e6f7420746f6b656e206f776e6560008201527f72206f7220617070726f76656400000000000000000000000000000000000000602082015250565b6000612c59602d83612478565b9150612c6482612bfd565b604082019050919050565b60006020820190508181036000830152612c8881612c4c565b9050919050565b7f455243373231456e756d657261626c653a206f776e657220696e646578206f7560008201527f74206f6620626f756e6473000000000000000000000000000000000000000000602082015250565b6000612ceb602b83612478565b9150612cf682612c8f565b604082019050919050565b60006020820190508181036000830152612d1a81612cde565b9050919050565b7f455243373231456e756d657261626c653a20676c6f62616c20696e646578206f60008201527f7574206f6620626f756e64730000000000000000000000000000000000000000602082015250565b6000612d7d602c83612478565b9150612d8882612d21565b604082019050919050565b60006020820190508181036000830152612dac81612d70565b9050919050565b7f4e487b7100000000000000000000000000000000000000000000000000000000600052603260045260246000fd5b60008190508160005260206000209050919050565b60006020601f8301049050919050565b600082821b905092915050565b600060088302612e447fffffffffffffffffffffffffffffffffffffffffffffffffffffffffffffffff82612e07565b612e4e8683612e07565b95508019841693508086168417925050509392505050565b6000819050919050565b6000612e8b612e86612e818461251f565b612e66565b61251f565b9050919050565b6000819050919050565b612ea583612e70565b612eb9612eb182612e92565b848454612e14565b825550505050565b600090565b612ece612ec1565b612ed9818484612e9c565b505050565b5b81811015612efd57612ef2600082612ec6565b600181019050612edf565b5050565b601f821115612f4257612f1381612de2565b612f1c84612df7565b81016020851015612f2b578190505b612f3f612f3785612df7565b830182612ede565b50505b505050565b600082821c905092915050565b6000612f6560001984600802612f47565b1980831691505092915050565b6000612f7e8383612f54565b9150826002028217905092915050565b612f978261246d565b67ffffffffffffffff811115612fb057612faf6126fe565b5b612fba8254612aa8565b612fc5828285612f01565b600060209050601f831160018114612ff85760008415612fe6578287015190505b612ff08582612f72565b865550613058565b601f19841661300686612de2565b60005b8281101561302e57848901518255600182019150602085019450602081019050613009565b8683101561304b5784890151613047601f891682612f54565b8355505b6001600288020188555050505b505050505050565b7f4552433732313a20696e76616c696420746f6b656e2049440000000000000000600082015250565b6000613096601883612478565b91506130a182613060565b602082019050919050565b600060208201905081810360008301526130c581613089565b9050919050565b7f4552433732313a2061646472657373207a65726f206973206e6f74206120766160008201527f6c6964206f776e65720000000000000000000000000000000000000000000000602082015250565b6000613128602983612478565b9150613133826130cc565b604082019050919050565b600060208201905081810360008301526131578161311b565b9050919050565b7f53656e6465722068617320616c7265616479206265656e2077686974656c697360008201527f7465640000000000000000000000000000000000000000000000000000000000602082015250565b60006131ba602383612478565b91506131c58261315e565b604082019050919050565b600060208201905081810360008301526131e9816131ad565b9050919050565b7f4d6f7265206164647265737365732063616e27742062652061646465642c206c60008201527f696d697420726561636865640000000000000000000000000000000000000000602082015250565b600061324c602c83612478565b9150613257826131f0565b604082019050919050565b6000602082019050818103600083015261327b8161323f565b9050919050565b600081905092915050565b60006132988261246d565b6132a28185613282565b93506132b2818560208601612489565b80840191505092915050565b60006132ca828561328d565b91506132d6828461328d565b91508190509392505050565b7f4f776e61626c653a206e6577206f776e657220697320746865207a65726f206160008201527f6464726573730000000000000000000000000000000000000000000000000000602082015250565b600061333e602683612478565b9150613349826132e2565b604082019050919050565b6000602082019050818103600083015261336d81613331565b9050919050565b7f4552433732313a207472616e736665722066726f6d20696e636f72726563742060008201527f6f776e6572000000000000000000000000000000000000000000000000000000602082015250565b60006133d0602583612478565b91506133db82613374565b604082019050919050565b600060208201905081810360008301526133ff816133c3565b9050919050565b7f4552433732313a207472616e7366657220746f20746865207a65726f2061646460008201527f7265737300000000000000000000000000000000000000000000000000000000602082015250565b6000613462602483612478565b915061346d82613406565b604082019050919050565b6000602082019050818103600083015261349181613455565b9050919050565b7f4f776e61626c653a2063616c6c6572206973206e6f7420746865206f776e6572600082015250565b60006134ce602083612478565b91506134d982613498565b602082019050919050565b600060208201905081810360008301526134fd816134c1565b9050919050565b7f4552433732313a20617070726f766520746f2063616c6c657200000000000000600082015250565b600061353a601983612478565b915061354582613504565b602082019050919050565b600060208201905081810360008301526135698161352d565b9050919050565b7f4552433732313a207472616e7366657220746f206e6f6e20455243373231526560008201527f63656976657220696d706c656d656e7465720000000000000000000000000000602082015250565b60006135cc603283612478565b91506135d782613570565b604082019050919050565b600060208201905081810360008301526135fb816135bf565b9050919050565b7f4e487b7100000000000000000000000000000000000000000000000000000000600052601260045260246000fd5b7f455243373231456e756d657261626c653a20636f6e736563757469766520747260008201527f616e7366657273206e6f7420737570706f727465640000000000000000000000602082015250565b600061368d603583612478565b915061369882613631565b604082019050919050565b600060208201905081810360008301526136bc81613680565b9050919050565b600081519050919050565b600082825260208201905092915050565b60006136ea826136c3565b6136f481856136ce565b9350613704818560208601612489565b61370d816124b3565b840191505092915050565b600060808201905061372d60008301876125b4565b61373a60208301866125b4565b6137476040830185612677565b818103606083015261375981846136df565b905095945050505050565b600081519050613773816123de565b92915050565b60006020828403121561378f5761378e6123a8565b5b600061379d84828501613764565b91505092915050565b7f4e487b7100000000000000000000000000000000000000000000000000000000600052601160045260246000fd5b60006137e08261251f565b91506137eb8361251f565b9250828203905081811115613803576138026137a6565b5b92915050565b7f4e487b7100000000000000000000000000000000000000000000000000000000600052603160045260246000fd5b7f4552433732313a206d696e7420746f20746865207a65726f2061646472657373600082015250565b600061386e602083612478565b915061387982613838565b602082019050919050565b6000602082019050818103600083015261389d81613861565b9050919050565b7f4552433732313a20746f6b656e20616c7265616479206d696e74656400000000600082015250565b60006138da601c83612478565b91506138e5826138a4565b602082019050919050565b60006020820190508181036000830152613909816138cd565b905091905056fea264697066735822122055c24bbe805321c73f2c6ecaff8e43362e7c2197099d054d9e52434374750cf264736f6c63430008100033",
  "linkReferences": {},
  "deployedLinkReferences": {}
}